:100000000C9434000C9449000C9449000C94490061
:100010000C9449000C9449000C9449000C9449003C
:100020000C9449000C9449000C9449000C9449002C
:100030000C9449000C9449000C9449000C9449001C
:100040000C9449000C9449000C9449000C9449000C
:100050000C9449000C9449000C9449000C944900FC
:100060000C9449000C94490011241FBECFEFD8E036
:10007000DEBFCDBF11E0A0E0B1E0ECECF8E002C0E3
:1000800005900D92A431B107D9F70E94F8030C94A2
:1000900064040C9400007F928F929F92AF92BF9263
:1000A000CF92DF92EF92FF920F931F93CF93DF9344
:1000B0008C01962E872EB22ED42FDD0FDD0FDD0F93
:1000C000C0E0AA24AA94AD0ECD130EC0DF91CF914B
:1000D0001F910F91FF90EF90DF90CF90BF90AF9066
:1000E0009F908F907F900895892D982D0E94CA032C
:1000F0008111ECCFEA2CEC1AB11001C0EC2E7A2C55
:10010000CA2C0A2C000CDD08F12C77FE08C061E037
:10011000C8010E9431030E941803CF5FD5CFF801B8
:1001200080819BB1EC14FD0459F4892B8BB960E0FC
:10013000C8010E9431037A94F1E0CF1AD108E5CFCB
:1001400080958923F3CF2F923F924F925F926F92C7
:100150007F928F929F92AF92BF92CF92DF92EF9257
:10016000FF920F931F93CF93DF93CDB7DEB72D97F9
:100170000FB6F894DEBF0FBECDBF4C016A877B87F8
:1001800049835A83A22EE42FEE0FEE0FEE0F2223A7
:10019000D1F12FEF30E040E050E060E070E080E02F
:1001A00090E0AE2FA850BB0B8D010E9422042C873B
:1001B0003D87142FF52EE62ED72EC82EB92E312CC2
:1001C000212C8E2F90E099878887A981BA812A16E1
:1001D0003B061CF12D960FB6F894DEBF0FBECDBFC7
:1001E000DF91CF911F910F91FF90EF90DF90CF9013
:1001F000BF90AF909F908F907F906F905F904F9047
:100200003F902F900895BFEFBC871D8610E0F12C22
:10021000E12CD12CC12CB12CD2CF8A859B850E9498
:10022000CA038111D7CF0E941D030C859D859B8336
:100230001C83FD82EE822601BF82712C612C888591
:1002400099856816790604F161E0C4010E943103C2
:100250000E9418032C853D85412F5F2D6E2D7D2D2D
:100260008C2D9B2D08E0AA2009F43FC00E943D047C
:100270002C873D87142FF52EE62ED72EC82EB92EAB
:100280009FEF291A390AA1CFD401EC91202F2170B8
:1002900030E040E050E060E070E080E090E0A0E01E
:1002A0000E945804F1F08BB1E82BEBB960E0C40177
:1002B0000E943103202F3B814C815D816E81752D21
:1002C000842D9F8101E00E943D04022F3B834C83DB
:1002D0005D836E83572E482E9F83BFEF6B1A7B0A78
:1002E000AECF8BB1E095E823E0CF0E942204C0CFCF
:1002F00080E00E9456038093B4000895FF920F930C
:100300001F93CF93DF93EC01062FF72E40E051E0CF
:1003100060E080E00E94A90210E2802F9F2D0E94E1
:10032000CA03811114C09BB18881809589238BB940
:1003300060E0CE010E943103115079F761E0CE01F7
:10034000DF91CF911F910F91FF900C943103DF91BA
:10035000CF911F910F91FF900895FF920F931F93DC
:10036000CF93DF93EC01062FF72E4AE051E060E0D7
:1003700080E00E94A90210E2802F9F2D0E94CA03F4
:10038000811115C00E941D038BB19881892B8BB9F7
:1003900060E0CE010E943103115071F761E0CE019F
:1003A000DF91CF911F910F91FF900C943103DF915A
:1003B000CF911F910F91FF900895FF920F931F937C
:1003C000CF93DF93D82FC92FF62E172F61E00E940D
:1003D0007B0381110BC06D2F7C2F8F2D912FDF910F
:1003E000CF911F910F91FF900C94AD0164E08D2F80
:1003F0009C2F0E947B0360E8811111C08D2F9C2FE0
:100400000E947B03282F44E06D2F7C2F8F2D912F8E
:10041000DF91CF911F910F91FF900C944B008D2F86
:100420009C2F0E947B03282F00E044E050E06D2FBA
:100430007C2F8F2D912F0E94A300DF91CF911F91D0
:100440000F91FF90089527E030E090E0AC01022E7C
:1004500002C0559547950A94E2F740FF09C05E9A9D
:100460005F9A5F982150310988F7289A2898089553
:100470005E98F6CFCF93C82FC295C07F6111C1603F
:100480008C2F84600E94230285E08A95F1F700009A
:100490008C2F0E94230287EC90E00197F1F700C0B7
:1004A0000000CF910895CF93C82F60E082958F70A0
:1004B0000E943A0260E08C2F8F700E943A02C15075
:1004C000C23030F48FE39FE10197F1F700C00000E4
:1004D000CF910895CF93C82F61E082958F700E94CD
:1004E0003A0261E08C2F8F70CF910C943A02CF9337
:1004F000DF93EC018991811103C0DF91CF910895C1
:100500000E946A02F7CF811180E4860F80680C9404
:10051000530281E00E9453028FE39FE10197F1F7BC
:1005200000C0000008950F931F93CF93DF93182FFF
:10053000062FD42FC52F0E948902602F812F0E9481
:1005400083028D2F9C2FDF91CF911F910F910C94DF
:100550007702CF93DF93D42FC52F0E9483028D2F74
:100560009C2FDF91CF910C947702CF9360E00E9493
:100570008302C0E180E20E946A02C150D9F7CF91A4
:1005800008951F93CF93DF93C82F162FD72F0E9464
:10059000B50260E08C2F0E948302812F9D2FDF9196
:1005A000CF911F910C947702569A209A579A2FEF69
:1005B00083EF91E0215080409040E1F700C00000BF
:1005C00060E083E00E943A028FE19EE40197F1F738
:1005D00000C0000060E083E00E943A0287E592E0FC
:1005E0000197F1F700C0000060E083E00E943A024A
:1005F00060E082E00E943A0288E20E9453028CE0AE
:100600000E94530281E00E9453028FE39FE1019711
:10061000F1F700C0000086E00C945302815008F40A
:100620000895EFE7FCE03197F1F700C00000F6CF46
:1006300081E00E9456030C940E0380E00E94560352
:100640008093B4000895FC0184E0808388E0818376
:1006500080E1828380E283838AB18C638AB90C94BF
:100660004F03FC01662319F0613059F008958BB1F6
:100670009381892B8BB99BB18381809589238BB919
:1006800008958BB19281892B8BB99BB18281F5CF73
:1006900080E480937C0087E880937A00089583E269
:1006A0008093B00082E08093B100089590917C0027
:1006B000907F8F70982B90937C0080917A0080645B
:1006C00080937A0090917A00892F807496FDFACFFA
:1006D00040917800509179009A013695279536958A
:1006E00027954C3F534028F42531310518F0822FCF
:1006F00008958EEF0895FC01818186230895CF939C
:10070000DF93CDB7DEB729970FB6F894DEBF0FBEE3
:10071000CDBFFC01618170E0FE01319627E030E041
:10072000AF01CB01022E02C0959587950A94E2F79E
:1007300081709927C09681932150310990F71986CD
:1007400060E081E00E94A90229960FB6F894DEBF0E
:100750000FBECDBFDF91CF9108952C982C9A299888
:1007600098E080E0880F1A9981602B9A2B9891501D
:10077000C9F7299A80950895CF93DF93EC0184B14E
:100780008A6184B922980E94AD0388838983DF91AE
:10079000CF9108951F93CF93DF93EC0118810E94AE
:1007A000AD03982F8883812F80958923E9F030E06D
:1007B00020E090E0E1E0F0E0AC01022E02C05595AF
:1007C00047950A94E2F740FF09C04981BF01022E14
:1007D00001C0660F0A94EAF7462749832F5F3F4F0F
:1007E0002830310549F781E0DF91CF911F910895BD
:1007F00000D000D000D0CDB7DEB7CE0101960E9468
:100800002303CE0105960E94BC030E9448030E9468
:10081000D4020E948902CE0105960E947F031D9991
:1008200008C0BE016B5F7F4FCE0101960E947E0122
:10083000F2CF41E0BE016F5F7F4FCE0105960E946F
:10084000DD01E9CF002E083090F0982F872F762F0A
:10085000652F542F432F322F22270850F4CF220F19
:10086000331F441F551F661F771F881F991F0A9546
:10087000B2F7002D089597FD1094002E083098F0DF
:100880000850232F342F452F562F672F782F892F6D
:10089000912DF4CF159497958795779567955795F2
:1008A0004795379527950A95AAF71124002D0895A5
:1008B0000024A7FD00942A17300540055005600567
:0C08C0007005800590050895F894FFCFA6
:1008CC004C454473206F666600004C454473206FA2
:0408DC006E21000089
:00000001FF
