:100000000C9434000C9449000C9449000C94490061
:100010000C9449000C9449000C9449000C9449003C
:100020000C9449000C9449000C9449000C9449002C
:100030000C9449000C9449000C9449000C9449001C
:100040000C9449000C9449000C9449000C9449000C
:100050000C9449000C9449000C9449000C944900FC
:100060000C9449000C94490011241FBECFEFD8E036
:10007000DEBFCDBF11E0A0E0B1E0E8E8FAE002C0E9
:1000800005900D92A831B107D9F70E94A1040C94F4
:1000900042050C9400007F928F929F92AF92BF9284
:1000A000CF92DF92EF92FF920F931F93CF93DF9344
:1000B0008C01962E872EB22ED42FDD0FDD0FDD0F93
:1000C000C0E0AA24AA94AD0ECD130EC0DF91CF914B
:1000D0001F910F91FF90EF90DF90CF90BF90AF9066
:1000E0009F908F907F900895892D982D0E94730482
:1000F0008111ECCFEA2CEC1AB11001C0EC2E7A2C55
:10010000CA2C0A2C000CDD08F12C77FE08C061E037
:10011000C8010E94E0030E94C703CF5FD5CF0E94B1
:10012000CC03F80180819BB1EC14FD0459F4892BB8
:100130008BB960E0C8010E94E0037A94F1E0CF1A25
:10014000D108E3CF80958923F3CF2F923F924F922E
:100150005F926F927F928F929F92AF92BF92CF9257
:10016000DF92EF92FF920F931F93CF93DF93CDB760
:10017000DEB72D970FB6F894DEBF0FBECDBF4C0192
:100180006A877B8749835A83A22EE42FEE0FEE0FF6
:10019000EE0F2223D1F12FEF30E040E050E060E09D
:1001A00070E080E090E0AE2FA850BB0B8D010E9464
:1001B000CB042C873D87142FF52EE62ED72EC82E84
:1001C000B92E312C212C8E2F90E099878887A98118
:1001D000BA812A163B061CF12D960FB6F894DEBFA5
:1001E0000FBECDBFDF91CF911F910F91FF90EF9088
:1001F000DF90CF90BF90AF909F908F907F906F9047
:100200005F904F903F902F900895BFEFBC871D8661
:1002100010E0F12CE12CD12CC12CB12CD2CF8A854D
:100220009B850E9473048111D7CF0E94CC030C855B
:100230009D859B831C83FD82EE822601BF82712CEB
:10024000612C888599856816790604F161E0C401FE
:100250000E94E0030E94C7032C853D85412F5F2D3E
:100260006E2D7D2D8C2D9B2D08E0AA2009F43FC01A
:100270000E94E6042C873D87142FF52EE62ED72EFC
:10028000C82EB92E9FEF291A390AA1CFD401EC91BB
:10029000202F217030E040E050E060E070E080E02E
:1002A00090E0A0E00E940105F1F08BB1E82BEBB9E2
:1002B00060E0C4010E94E003202F3B814C815D81FE
:1002C0006E81752D842D9F8101E00E94E604022F2E
:1002D0003B834C835D836E83572E482E9F83BFEFF5
:1002E0006B1A7B0AAECF8BB1E095E823E0CF0E947A
:1002F000CB04C0CFDF92EF92FF920F931F93CF9367
:10030000DF9300D000D0CDB7DEB78C017B0180E257
:10031000D82EC7010E947304811117C08BB1F80158
:100320009081892B8BB960E0C8010E94E003DA94C8
:10033000D110EFCF61E0C8010E94E0031FEF0FEF83
:10034000C7010E947304882361F00F900F900F90F3
:100350000F90DF91CF911F910F91FF90EF90DF9061
:10036000089580E00E940504811710F4182FE8CF4B
:100370001093B400173E28F1FFE729EA33E0F1506B
:1003800020403040E1F700C00000100F99F118172D
:1003900010F0182F0FEF4AE0BE016F5F7F4F812FE3
:1003A00090E00E940D0544E151E069E080E00E9488
:1003B0005803AE014F5F5F4F69E080E00E94580331
:1003C000BFCF193C40F09FEFE0E7F2E09150E040F2
:1003D000F040E1F7D8CF173940F02FE738E391E04C
:1003E000215030409040E1F7CECFEFE3FCE9319768
:1003F000F1F7C9CF11E001E0CECFFF920F931F9329
:10040000CF93DF93EC01062FF72E40E051E060E040
:1004100080E00E94580310E2802F9F2D0E947304F9
:10042000811114C09BB18881809589238BB960E0CC
:10043000CE010E94E003115079F761E0CE01DF9117
:10044000CF911F910F91FF900C94E003DF91CF911A
:100450001F910F91FF900895FF920F931F93CF93D9
:10046000DF93EC01062FF72E4AE051E060E080E0D8
:100470000E94580310E2802F9F2D0E947304811167
:1004800015C00E94CC038BB19881892B8BB960E099
:10049000CE010E94E003115071F761E0CE01DF91BF
:1004A000CF911F910F91FF900C94E003DF91CF91BA
:1004B0001F910F91FF900895FF920F931F93CF9379
:1004C000DF93D82FC92FF62E172F61E00E94240446
:1004D00081110BC06D2F7C2F8F2D912FDF91CF912C
:1004E0001F910F91FF900C942C0262E08D2F9C2F96
:1004F0000E94240481114BC064E08D2F9C2F0E9428
:10050000240481112FC068E08D2F9C2F0E942404A9
:10051000882391F060E88D2F9C2F0E942404282FBF
:1005200042E06D2F7C2F8F2D912FDF91CF911F9166
:100530000F91FF900C944B0060E18D2F9C2F0E9437
:10054000240460E8882339F08D2F9C2F0E94240416
:10055000282F41E0E6CF8D2F9C2F0E942404282FC6
:1005600044E0DFCF60E88D2F9C2F0E942404282FC9
:1005700000E044E050E06D2F7C2F8F2D912F0E94E2
:10058000A500DF91CF911F910F91FF9008956D2FDE
:100590007C2F8F2D912FDF91CF911F910F91FF9085
:1005A0000C947A0127E030E090E0AC01022E02C00A
:1005B000559547950A94E2F740FF09C05E9A5F9A05
:1005C0005F982150310988F7289A289808955E98F5
:1005D000F6CFCF93C82FC295C07F6111C1608C2F19
:1005E00084600E94D20285E08A95F1F700008C2F8A
:1005F0000E94D20287EC90E00197F1F700C0000062
:10060000CF910895CF93C82F60E082958F700E949C
:10061000E90260E08C2F8F700E94E902C150C23065
:1006200030F48FE39FE10197F1F700C00000CF9114
:100630000895CF93C82F61E082958F700E94E902E0
:1006400061E08C2F8F70CF910C94E902CF93DF93F0
:10065000EC018991811103C0DF91CF9108950E942F
:100660001903F7CF811180E4860F80680C94020390
:1006700081E00E9402038FE39FE10197F1F700C040
:10068000000008950F931F93CF93DF93182F062F29
:10069000D42FC52F0E943803602F812F0E94320370
:1006A0008D2F9C2FDF91CF911F910F910C942603DA
:1006B000CF93DF93D42FC52F0E9432038D2F9C2F11
:1006C000DF91CF910C942603CF9360E00E94320318
:1006D000C0E180E20E941903C150D9F7CF9108957B
:1006E0001F93CF93DF93C82F162FD72F0E94640339
:1006F00060E08C2F0E943203812F9D2FDF91CF91DC
:100700001F910C942603569A209A579A2FEF83EF45
:1007100091E0215080409040E1F700C0000060E08F
:1007200083E00E94E9028FE19EE40197F1F700C0A7
:10073000000060E083E00E94E90287E592E0019713
:10074000F1F700C0000060E083E00E94E90260E091
:1007500082E00E94E90288E20E9402038CE00E948B
:10076000020381E00E9402038FE39FE10197F1F70A
:1007700000C0000086E00C940203815008F4089544
:10078000EFE7FCE03197F1F700C00000F6CF81E021
:100790000E9405040C94BD0380E00E940504809330
:1007A000B4000895FC0184E0808388E0818380E1C7
:1007B000828380E283838AB18C638AB90C94FE03BE
:1007C000FC01662319F0613059F008958BB19381D3
:1007D000892B8BB99BB18381809589238BB908952F
:1007E0008BB19281892B8BB99BB18281F5CF80E44B
:1007F00080937C0087E880937A00089583E2809359
:10080000B00082E08093B100089590917C00907FC9
:100810008F70982B90937C0080917A0080648093F5
:100820007A0080917A0086FDFCCF2091780030918B
:100830007900C90196958795969587952C3F334009
:1008400010F08EEF90E00895FC01818186230895D9
:10085000CF93DF93CDB7DEB729970FB6F894DEBFFD
:100860000FBECDBFFC01618170E0FE01319627E033
:1008700030E0AF01CB01022E02C0959587950A9416
:10088000E2F781709927C09681932150310990F742
:10089000198660E081E00E94580329960FB6F8940B
:1008A000DEBF0FBECDBFDF91CF9108952C982C9A5B
:1008B000299898E080E0880F1A9981602B9A2B98EC
:1008C0009150C9F7299A80950895CF93DF93EC0151
:1008D00084B18A6184B922980E94560488838983EE
:1008E000DF91CF9108951F93CF93DF93EC0118818F
:1008F0000E945604982F8883812F80958923E9F0E0
:1009000030E020E090E0E1E0F0E0AC01022E02C037
:10091000559547950A94E2F740FF09C04981BF0108
:10092000022E01C0660F0A94EAF7462749832F5F1B
:100930003F4F2830310549F781E0DF91CF911F917A
:10094000089500D000D000D0CDB7DEB7CE0101961B
:100950000E94D203CE0105960E9465040E94F7030F
:100960000E9483030E943803CE0105960E9428044A
:100970001D9908C0BE016B5F7F4FCE0101960E949A
:10098000FD01F2CF41E0BE016F5F7F4FCE010596C2
:100990000E945C02E9CF002E083090F0982F872F3C
:1009A000762F652F542F432F322F22270850F4CF54
:1009B000220F331F441F551F661F771F881F991F63
:1009C0000A95B2F7002D089597FD1094002E083077
:1009D00098F00850232F342F452F562F672F782F4C
:1009E000892F912DF4CF15949795879577956795D5
:1009F00057954795379527950A95AAF71124002D05
:100A000008950024A7FD00942A17300540055005DD
:100A100060057005800590050895BB274A3031F4C4
:100A2000992322F4BDE2909581959F4F0C9419056E
:100A3000BB27FB015527AA27880F991FAA1FA417B8
:100A400010F0A41B83955051B9F7A05DAA3308F0AC
:100A5000A95DA193009779F7B111B1931192CB01E0
:100A60000C943205DC01FC01672F71917723E1F7CB
:100A7000329704C07C916D9370836291AE17BF076B
:080A8000C8F30895F894FFCFBC
:100A88004C454473206F666600004C454473206FE4
:080A98006E2100002020200067
:00000001FF
