:100000000C9434000C9449000C9449000C94490061
:100010000C9449000C9449000C9449000C9449003C
:100020000C9449000C9449000C9449000C9449002C
:100030000C9449000C9449000C9449000C9449001C
:100040000C9449000C9449000C9449000C9449000C
:100050000C9449000C9449000C9449000C944900FC
:100060000C9449000C94490011241FBECFEFD8E036
:10007000DEBFCDBF11E0A0E0B1E0E8EAFBE002C0E6
:1000800005900D92A634B107D9F70E94DD040C94B7
:10009000D2050C94000027E030E090E0AC01022E85
:1000A00002C0559547950A94E2F740FF09C05E9A51
:1000B0005F9A5F982150310988F7289A2898089507
:1000C0005E98F6CFCF93C82FC295C07F6111C160F3
:1000D0008C2F84600E944B0085E08A95F1F7000028
:1000E0008C2F0E944B0087EC90E00197F1F700C045
:1000F0000000CF910895CF93C82F60E082958F7054
:100100000E94620060E08C2F8F700E946200C150DC
:10011000C23030F48FE39FE10197F1F700C0000097
:10012000CF910895CF93C82F61E082958F700E9480
:10013000620061E08C2F8F70CF910C946200CF939E
:10014000DF93EC018991811103C0DF91CF91089574
:100150000E949200F7CF811180E4860F80680C9492
:100160007B0081E00E947B008FE39FE10197F1F724
:1001700000C0000008950F931F93CF93DF93182FB3
:10018000062FD42FC52F0E94B100602F812F0E940F
:10019000AB008D2F9C2FDF91CF911F910F910C946D
:1001A0009F00CF93DF93D42FC52F0E94AB008D2FDC
:1001B0009C2FDF91CF910C949F00569A209A579ACA
:1001C0002FEF83EF91E0215080409040E1F700C095
:1001D000000060E083E00E9462008FE19EE40197EE
:1001E000F1F700C0000060E083E00E94620087E554
:1001F00092E00197F1F700C0000060E083E00E9408
:10020000620060E082E00E94620088E20E947B005F
:100210008CE00E947B0081E00E947B008FE39FE1E5
:100220000197F1F700C0000086E00C947B00FC0110
:100230008BB19381892B8BB99BB183818095892365
:100240008BB90895815008F40895EFE7FCE03197E9
:10025000F1F700C00000F6CF83E00E940A040C947E
:10026000220180E00E940A048093B4000895FC01FA
:1002700084E0808388E0818380E1828380E28383DD
:100280008AB18C638AB90C94D604FC01662319F0F8
:10029000613019F008950C9417018BB19281892B6C
:1002A0008BB99BB18281809589238BB908959F92E8
:1002B000AF92BF92CF92DF92EF92FF920F931F9374
:1002C000CF93DF93EC01162F972E59017A0183E02B
:1002D000EE0CFF1C8A95E1F7D12CC12CCE14DF0463
:1002E0007CF061E0CE01DF91CF911F910F91FF90E3
:1002F000EF90DF90CF90BF90AF909F900C9445010E
:10030000602F812F992D0E946E04811113C00E94CD
:10031000310188819BB1A114B10449F0892B8BB9BB
:10032000CE010E9417018FEFC81AD80AD7CF809547
:100330008923F5CFDF91CF911F910F91FF90EF901F
:10034000DF90CF90BF90AF909F9008952F923F92F3
:100350004F925F926F927F928F929F92AF92BF92D5
:10036000CF92DF92EF92FF920F931F93CF93DF9381
:10037000CDB7DEB761970FB6F894DEBF0FBECDBF25
:1003800089839A836E877F872A870B87440F440F60
:10039000440F4C83222309F44FC021E030E040E0B9
:1003A00050E060E070E080E090E0AC81A150BB0BD9
:1003B0008D010E944605288B398B942E852E762E32
:1003C000672E582E492E212C312C1B821D821E8215
:1003D0001F8218861986FC81EF2FF0E0FD87EC87DD
:1003E0002C8130E040E050E060E070E080E090E0A0
:1003F0005101CB80DD80EE80FF80088519850E9449
:10040000880509F018F561960FB6F894DEBF0FBEA7
:10041000CDBFDF91CF911F910F91FF90EF90DF90B3
:10042000CF90BF90AF909F908F907F906F905F9094
:100430004F903F902F900895B1E0B88B198A912C7E
:10044000812C712C612C512C412CBDCF6B858E855C
:100450009F850E946E048111D6CF0E943101EC84E9
:10046000FD8481E0E81AF108EFEFEE16FE0681F553
:1004700061E089819A810E9445010E942C01FA85E0
:1004800028893989492D582D672D762D852D942D54
:1004900001E0FF2309F445C00E946105288B398BD8
:1004A000942E852E762E672E582E492E91014B8143
:1004B0005D816E817F8188859985A1E00E947C05A0
:1004C00019014B835D836E837F838887998788CFEB
:1004D000A981BA81EC9128893989492D582D672D38
:1004E000762D852D942D0E2D0E946105217030E012
:1004F00040E050E060E070E080E090E0A0E00E942A
:10050000910559F08BB1E82BEBB989819A810E9452
:100510001701B1E0EB1AF108A7CF8BB1E095E82302
:10052000F3CF0E944605BACF2F923F924F925F922F
:100530006F927F928F929F92AF92BF92CF92DF92F3
:10054000EF92FF920F931F93CF93DF93CDB7DEB758
:100550002E970FB6F894DEBF0FBECDBF4C016B8750
:100560007C8749835A83A22E0887E42FEE0FEE0F73
:10057000EE0F2223D1F12FEF30E040E050E060E0B9
:1005800070E080E090E0AE2FA850BB0B8D010E9480
:1005900046052D873E87142FF52EE62ED72EC82E22
:1005A000B92E312C212C8E2F90E09A878987A98132
:1005B000BA812A163B061CF12E960FB6F894DEBFC0
:1005C0000FBECDBFDF91CF911F910F91FF90EF90A4
:1005D000DF90CF90BF90AF909F908F907F906F9063
:1005E0005F904F903F902F900895BFEFBD871E867C
:1005F00010E0F12CE12CD12CC12CB12CD2CF68858C
:100600008B859C850E946E048111D6CF0E9431019A
:100610000D859E859B831C83FD82EE822601BF8211
:10062000712C612C89859A8568167906FCF061E049
:10063000C4010E9445010E942C012D853E85412F59
:100640005F2D6E2D7D2D8C2D9B2D08E0AA20F1F1C4
:100650000E9461052D873E87142FF52EE62ED72E9A
:10066000C82EB92E9FEF291A390AA1CFD401EC91D7
:10067000202F217030E040E050E060E070E080E04A
:1006800090E0A0E00E949105E9F08BB1E82BEBB976
:10069000C4010E941701202F3B814C815D816E8136
:1006A000752D842D9F8101E00E946105022F3B83FF
:1006B0004C835D836E83572E482E9F83BFEF6B1A4A
:1006C0007B0AB0CF8BB1E095E823E1CF0E944605CD
:1006D000C1CFDC0181E2E0E0F1E001900D928A956A
:1006E000E1F784B18A6184B9229808952C9825E0B5
:1006F0002A95F1F700002C9A299898E080E0880F5D
:100700001A9981602B9A25E02A95F1F700002B9821
:100710009150A9F7299A80950895AF92BF92CF92F0
:10072000DF92EF92FF920F931F93CF93DF93CDB79A
:10073000DEB72B970FB6F894DEBF0FBECDBF7C019E
:100740000E947603D82EF70180A18D1509F451C0BF
:10075000FE01319627E030E0AF016D2D70E0CB0156
:10076000022E02C0959587950A94E2F78170992729
:10077000C09681932150310990F7198660E080E09E
:100780000E94D10087015701E0E2AE0EB11CCC24DB
:10079000C394F8018081982F9D2121F1F70190A148
:1007A000892301F5F80181818C2581834281538160
:1007B00060E081E00E94D1004DE351E063E081E020
:1007C0000E94D100F80181814AE0BE01665F7F4F3F
:1007D00090E00E949D05AE01465F5F4F69E081E0B9
:1007E0000E94D1000C5F1F4F0A151B0591F6F701FF
:1007F000D0A22B960FB6F894DEBF0FBECDBFDF910F
:10080000CF911F910F91FF90EF90DF90CF90BF900D
:10081000AF90089590917C00907F8F70982B90936B
:100820007C0080917A00806480937A0090917A00B5
:10083000892F807496FDFACF40917800509179000D
:100840009A0136952795369527954C3F534028F4C5
:100850002531310518F0822F08958EEF089582E03A
:100860000E940A04282F30E0843128F0283C31050A
:1008700020F08EE1089582E0089584E0089581E0FB
:100880000E940A04282F30E0823328F026393105EF
:1008900020F083E0089581E0089582E00895FC014E
:1008A000672B29F493818181982381E009F480E00A
:1008B0000895FC018081423631F493B1692359F0E7
:1008C000822B80830895433611F496B1F7CF4436D6
:1008D00011F499B1F3CF20958223F3CF1F93CF93D7
:1008E000DF93EC011B8129814A81688103960E9474
:1008F00059040E943F049B819F7940E2849F9001AC
:100900001124922B9B8381E0911301C080E0DF9141
:10091000CF911F9108958295869583700895409197
:100920002101509122016091230170912401FC0169
:10093000408351836283738308950F931F93CF93F2
:10094000DF93CDB7DEB7A5970FB6F894DEBF0FBE25
:10095000CDBF8C01CE0101960E946903CE01829623
:100960000E948F0481E2FE013196D80101900D9220
:100970008A95E1F78AA19BA1ACA1BDA1F80181A351
:1009800092A3A3A3B4A3C801A5960FB6F894DEBFA3
:100990000FBECDBFDF91CF911F910F91089580E4DD
:1009A00080937C0087E880937A00089583E28093A7
:1009B000B00082E08093B1000895CDB7DEB7CE5489
:1009C000D1090FB6F894DEBF0FBECDBFCE01855B57
:1009D0009F4F0E948F04CE0186960E946903CE012C
:1009E00001960E949D04CE01895B9F4F0E943701B2
:1009F0000E94CF040E94DD000E94B100CE018696C5
:100A00000E948D0370E060E0CE01855B9F4F0E94E5
:100A10004F0481110EC001E030E020E046E050E0DC
:100A2000BE01655B7F4FCE01895B9F4F0E945701DE
:100A3000E5CF27962FAD27978FA1882371F08EAD34
:100A4000282300E044E050E0BE01655B7F4FCE010B
:100A5000895B9F4F0E949402D1CF23968FAD23973D
:100A6000822371F08EAD282300E044E050E0BE0107
:100A7000655B7F4FCE01895B9F4F0E94A601BECF71
:100A800001E021E030E044E050E0CACF002E083021
:100A900090F0982F872F762F652F542F432F322FCA
:100AA00022270850F4CF220F331F441F551F661F03
:100AB000771F881F991F0A95B2F7002D089597FD9B
:100AC0001094002E083098F00850232F342F452F13
:100AD000562F672F782F892F912DF4CF1594979546
:100AE00087957795679557954795379527950A95F3
:100AF000AAF71124002D08950024A7FD00942A0FC1
:100B0000301D401D501D601D701D801D901D0895DD
:100B10002A153B054C055D056E057F05800791078D
:100B200008950024A7FD00942A17300540055005BC
:100B300060057005800590050895BB274A3031F4A3
:100B4000992322F4BDE2909581959F4F0C94A905BD
:100B5000BB27FB015527AA27880F991FAA1FA41797
:100B600010F0A41B83955051B9F7A05DAA3308F08B
:100B7000A95DA193009779F7B111B1931192CB01BF
:100B80000C94C205DC01FC01672F71917723E1F71A
:100B9000329704C07C916D9370836291AE17BF074A
:080BA000C8F30895F894FFCF9B
:100BA800010025010200280104002B0108002E0184
:100BB80010003101200034014000370180003A0163
:100BC8000020016200743100743200743300743400
:100BD800007435007436007437007438007374611B
:060BE80074653A200000D4
:00000001FF
