:100000000C9434000C943E000C943E000C943E0082
:100010000C943E000C943E000C943E000C943E0068
:100020000C943E000C943E000C943E000C943E0058
:100030000C943E000C943E000C943E000C943E0048
:100040000C943E000C943E000C943E000C943E0038
:100050000C943E000C943E000C943E000C943E0028
:100060000C943E000C943E0011241FBECFEFD8E04C
:10007000DEBFCDBF0E9433030C94D6030C94000066
:1000800027E030E090E0AC01022E02C05595479584
:100090000A94E2F740FF09C05E9A5F9A5F98215088
:1000A000310988F7289A289808955E98F6CFCF935B
:1000B000C82FC295C07F6111C1608C2F84600E94DF
:1000C000400085E08A95F1F700008C2F0E944000E7
:1000D00087EC90E00197F1F700C00000CF91089500
:1000E000CF93C82F60E082958F700E94570060E028
:1000F0008C2F8F700E945700C150C23030F48FE3B4
:100100009FE10197F1F700C00000CF910895CF93D0
:10011000C82F61E082958F700E94570061E08C2F9C
:100120008F70CF910C945700CF93DF93EC0189919E
:10013000811103C0DF91CF9108950E948700F7CF0E
:10014000811180E4860F80680C94700081E00E9429
:1001500070008FE39FE10197F1F700C00000089560
:100160000F931F93CF93DF93182F062FD42FC52FF4
:100170000E94A600602F812F0E94A0008D2F9C2F2F
:10018000DF91CF911F910F910C949400CF93DF9347
:10019000D42FC52F0E94A0008D2F9C2FDF91CF91CF
:1001A0000C949400569A209A579A2FEF83EF91E07F
:1001B000215080409040E1F700C0000060E083E003
:1001C0000E9457008FE19EE40197F1F700C0000004
:1001D00060E083E00E94570087E592E00197F1F725
:1001E00000C0000060E083E00E94570060E082E011
:1001F0000E94570088E20E9470008CE00E9470000C
:1002000081E00E9470008FE39FE10197F1F700C049
:10021000000086E00C947000FC018BB19381892B67
:100220008BB99BB18381809589238BB908958150C7
:1002300008F40895EFE7FCE03197F1F700C0000003
:10024000F6CF81E00E94C2020C94170180E00E9468
:10025000C2028093B4000895FC0184E0808388E0AA
:10026000818380E1828380E283838AB18C638AB94F
:100270000C94BB02FC01662319F0613019F008955B
:100280000C940C018BB19281892B8BB99BB182812B
:10029000809589238BB90895AF92BF92CF92DF9258
:1002A000EF92FF920F931F93CF93DF936C01B62EC3
:1002B000A72E7901EA0183E0CC0FDD1F8A95E1F7D3
:1002C00010E000E00C171D0774F061E0C601DF913B
:1002D000CF911F910F91FF90EF90DF90CF90BF9043
:1002E000AF900C943A018B2D9A2D0E940503811139
:1002F00013C00E942601F60180819BB1E114F10434
:1003000041F0892B8BB9C6010E940C010F5F1F4F72
:10031000D9CF80958923F6CFDF91CF911F910F918F
:10032000FF90EF90DF90CF90BF90AF900895AF9285
:10033000BF92CF92DF92EF92FF920F931F93CF93D2
:10034000DF93EC01B62EA72EF42EFF0CFF0CFF0C52
:1003500010E000E00F1558F0DF91CF911F910F9141
:10036000FF90EF90DF90CF90BF90AF9008958B2DCE
:100370009A2D0E9405038111EFCFEE24EA94EF0C31
:10038000CE2C0E2C000CDD08E7FE09C061E0CE018A
:100390000E943A010E9421010F5F1F4FDBCF88812D
:1003A0009BB1C016D10651F4892B8BB9CE010E94A6
:1003B0000C01EA9481E0C81AD108E6CF8095892320
:1003C000F4CF2F923F924F925F926F927F928F92D3
:1003D0009F92AF92BF92CF92DF92EF92FF920F93D4
:1003E0001F93CF93DF93CDB7DEB72D970FB6F89459
:1003F000DEBF0FBECDBF4C016A877B8749835A831E
:10040000A22EE42FEE0FEE0FEE0F2223D1F12FEFED
:1004100030E040E050E060E070E080E090E0AE2F3F
:10042000A850BB0B8D010E9494032C873D87142F8D
:10043000F52EE62ED72EC82EB92E312C212C8E2F3C
:1004400090E099878887A981BA812A163B061CF11A
:100450002D960FB6F894DEBF0FBECDBFDF91CF91C2
:100460001F910F91FF90EF90DF90CF90BF90AF90D2
:100470009F908F907F906F905F904F903F902F90C4
:100480000895BFEFBC871D8610E0F12CE12CD12C24
:10049000C12CB12CD2CF8A859B850E940503811186
:1004A000D7CF0E9426010C859D859B831C83FD82EE
:1004B000EE822601BF82712C612C88859985681691
:1004C0007906FCF061E0C4010E943A010E9421011A
:1004D0002C853D85412F5F2D6E2D7D2D8C2D9B2DE7
:1004E00008E0AA20F1F10E94AF032C873D87142F6A
:1004F000F52EE62ED72EC82EB92E9FEF291A390ACF
:10050000A2CFD401EC91202F217030E040E050E0E8
:1005100060E070E080E090E0A0E00E94CA03E9F0B3
:100520008BB1E82BEBB9C4010E940C01202F3B8159
:100530004C815D816E81752D842D9F8101E00E942B
:10054000AF03022F3B834C835D836E83572E482E6F
:100550009F83BFEF6B1A7B0AB0CF8BB1E095E82386
:10056000E1CF0E949403C1CF80E480937C0087E8B0
:1005700080937A00089583E28093B00082E08093B4
:10058000B100089590917C00907F8F70982B90938C
:100590007C0080917A00806480937A0090917A0048
:1005A000892F807496FDFACF4091780050917900A0
:1005B0009A0136952795369527954C3F534028F458
:1005C0002531310518F0822F08958EEF089584B1FA
:1005D0008A6184B9229808952C982C9A299898E0D9
:1005E00080E0880F1A9981602B9A2B989150C9F757
:1005F000299A80950895CF93DF93EC010E94EC0235
:1006000088838983DF91CF9108951F93CF93DF93E0
:10061000EC0118810E94EC02982F8883812F80952D
:100620008923E9F030E020E090E0E1E0F0E0AC0187
:10063000022E02C0559547950A94E2F740FF09C083
:100640004981BF01022E01C0660F0A94EAF74627CE
:1006500049832F5F3F4F2830310549F781E0DF9113
:10066000CF911F910895CDB7DEB72F970FB6F894AD
:10067000DEBF0FBECDBFCE010A960E942C01CE0177
:100680000E960E94FB020E94E7020E94B4020E94A2
:10069000D2000E94A6006F8570E0FE01319627E02F
:1006A00030E0AF01CB01022E02C0959587950A94E8
:1006B000E2F781709927C09681932150310990F714
:1006C000198660E080E00E94C6001D990DC001E01F
:1006D00030E020E046E050E0BE01625F7F4FCE0197
:1006E0000A960E944C01D7CF2F8520FF0CC02074A2
:1006F00000E044E050E0BE01625F7F4FCE010A9609
:100700000E94E101C8CF27FF09C044E0BE01625F3B
:100710007F4FCE010A960E949701BDCF01E021E0F4
:1007200030E044E050E0D8CF002E083090F0982F11
:10073000872F762F652F542F432F322F22270850D3
:10074000F4CF220F331F441F551F661F771F881FCA
:10075000991F0A95B2F7002D089597FD1094002E69
:10076000083098F00850232F342F452F562F672F2D
:10077000782F892F912DF4CF15949795879577959C
:10078000679557954795379527950A95AAF71124A8
:10079000002D08950024A7FD00942A173005400578
:1007A000500560057005800590050895F894FFCF09
:00000001FF
