:100000000C9434000C9449000C9449000C94490061
:100010000C9449000C9449000C9449000C9449003C
:100020000C9449000C9449000C9449000C9449002C
:100030000C9449000C9449000C9449000C9449001C
:100040000C9449000C9449000C9449000C9449000C
:100050000C9449000C9449000C9449000C944900FC
:100060000C9449000C94490011241FBECFEFD8E036
:10007000DEBFCDBF11E0A0E0B1E0E8E7FAE002C0EA
:1000800005900D92A831B107D9F70E9499040C94FC
:100090003A050C9400007F928F929F92AF92BF928C
:1000A000CF92DF92EF92FF920F931F93CF93DF9344
:1000B0008C01962E872EB22ED42FDD0FDD0FDD0F93
:1000C000C0E0AA24AA94AD0ECD130EC0DF91CF914B
:1000D0001F910F91FF90EF90DF90CF90BF90AF9066
:1000E0009F908F907F900895892D982D0E946B048A
:1000F0008111ECCFEA2CEC1AB11001C0EC2E7A2C55
:10010000CA2C0A2C000CDD08F12C77FE08C061E037
:10011000C8010E94D8030E94BF03CF5FD5CF0E94C1
:10012000C403F80180819BB1EC14FD0459F4892BC0
:100130008BB960E0C8010E94D8037A94F1E0CF1A2D
:10014000D108E3CF80958923F3CF2F923F924F922E
:100150005F926F927F928F929F92AF92BF92CF9257
:10016000DF92EF92FF920F931F93CF93DF93CDB760
:10017000DEB72D970FB6F894DEBF0FBECDBF4C0192
:100180006A877B8749835A83A22EE42FEE0FEE0FF6
:10019000EE0F2223D1F12FEF30E040E050E060E09D
:1001A00070E080E090E0AE2FA850BB0B8D010E9464
:1001B000C3042C873D87142FF52EE62ED72EC82E8C
:1001C000B92E312C212C8E2F90E099878887A98118
:1001D000BA812A163B061CF12D960FB6F894DEBFA5
:1001E0000FBECDBFDF91CF911F910F91FF90EF9088
:1001F000DF90CF90BF90AF909F908F907F906F9047
:100200005F904F903F902F900895BFEFBC871D8661
:1002100010E0F12CE12CD12CC12CB12CD2CF8A854D
:100220009B850E946B048111D7CF0E94C4030C856B
:100230009D859B831C83FD82EE822601BF82712CEB
:10024000612C888599856816790604F161E0C401FE
:100250000E94D8030E94BF032C853D85412F5F2D4E
:100260006E2D7D2D8C2D9B2D08E0AA2009F43FC01A
:100270000E94DE042C873D87142FF52EE62ED72E04
:10028000C82EB92E9FEF291A390AA1CFD401EC91BB
:10029000202F217030E040E050E060E070E080E02E
:1002A00090E0A0E00E94F904F1F08BB1E82BEBB9EB
:1002B00060E0C4010E94D803202F3B814C815D8106
:1002C0006E81752D842D9F8101E00E94DE04022F36
:1002D0003B834C835D836E83572E482E9F83BFEFF5
:1002E0006B1A7B0AAECF8BB1E095E823E0CF0E947A
:1002F000C304C0CFDF92EF92FF920F931F93CF936F
:10030000DF9300D000D0CDB7DEB78C017B0180E257
:10031000D82EC7010E946B04811117C08BB1F80160
:100320009081892B8BB960E0C8010E94D803DA94D0
:10033000D110EFCF61E0C8010E94D8031FEF0FEF8B
:10034000C7010E946B04882361F00F900F900F90FB
:100350000F90DF91CF911F910F91FF90EF90DF9061
:1003600008951093B400173E20F1FFE729EA83E0D7
:10037000F15020408040E1F700C00000100F91F1E3
:100380001F3F09F40FEF4AE0BE016F5F7F4F812FDF
:1003900090E00E94050544E151E069E080E00E94A0
:1003A0005003AE014F5F5F4F69E080E00E94500351
:1003B000C7CF193C40F09FEFE0E7F2E09150E040FA
:1003C000F040E1F7D9CF173940F02FE788E391E00B
:1003D000215080409040E1F7CFCFEFE3FCE9319727
:1003E000F1F7CACF11E001E0CECFFF920F931F9338
:1003F000CF93DF93EC01062FF72E40E051E060E051
:1004000080E00E94500310E2802F9F2D0E946B0419
:10041000811114C09BB18881809589238BB960E0DC
:10042000CE010E94D803115079F761E0CE01DF912F
:10043000CF911F910F91FF900C94D803DF91CF9132
:100440001F910F91FF900895FF920F931F93CF93E9
:10045000DF93EC01062FF72E4AE051E060E080E0E8
:100460000E94500310E2802F9F2D0E946B04811187
:1004700015C00E94C4038BB19881892B8BB960E0B1
:10048000CE010E94D803115071F761E0CE01DF91D7
:10049000CF911F910F91FF900C94D803DF91CF91D2
:1004A0001F910F91FF900895FF920F931F93CF9389
:1004B000DF93D82FC92FF62E172F61E00E941C045E
:1004C00081110BC06D2F7C2F8F2D912FDF91CF913C
:1004D0001F910F91FF900C94240262E08D2F9C2FAE
:1004E0000E941C0481114BC064E08D2F9C2F0E9440
:1004F0001C0481112FC068E08D2F9C2F0E941C04CA
:10050000882391F060E88D2F9C2F0E941C04282FD7
:1005100042E06D2F7C2F8F2D912FDF91CF911F9176
:100520000F91FF900C944B0060E18D2F9C2F0E9447
:100530001C0460E8882339F08D2F9C2F0E941C0436
:10054000282F41E0E6CF8D2F9C2F0E941C04282FDE
:1005500044E0DFCF60E88D2F9C2F0E941C04282FE1
:1005600000E044E050E06D2F7C2F8F2D912F0E94F2
:10057000A500DF91CF911F910F91FF9008956D2FEE
:100580007C2F8F2D912FDF91CF911F910F91FF9095
:100590000C947A0127E030E090E0AC01022E02C01A
:1005A000559547950A94E2F740FF09C05E9A5F9A15
:1005B0005F982150310988F7289A289808955E9805
:1005C000F6CFCF93C82FC295C07F6111C1608C2F29
:1005D00084600E94CA0285E08A95F1F700008C2FA2
:1005E0000E94CA0287EC90E00197F1F700C000007A
:1005F000CF910895CF93C82F60E082958F700E94AD
:10060000E10260E08C2F8F700E94E102C150C23085
:1006100030F48FE39FE10197F1F700C00000CF9124
:100620000895CF93C82F61E082958F700E94E102F8
:1006300061E08C2F8F70CF910C94E102CF93DF9308
:10064000EC018991811103C0DF91CF9108950E943F
:100650001103F7CF811180E4860F80680C94FA02B1
:1006600081E00E94FA028FE39FE10197F1F700C059
:10067000000008950F931F93CF93DF93182F062F39
:10068000D42FC52F0E943003602F812F0E942A0390
:100690008D2F9C2FDF91CF911F910F910C941E03F2
:1006A000CF93DF93D42FC52F0E942A038D2F9C2F29
:1006B000DF91CF910C941E03CF9360E00E942A0338
:1006C000C0E180E20E941103C150D9F7CF91089593
:1006D0001F93CF93DF93C82F162FD72F0E945C0351
:1006E00060E08C2F0E942A03812F9D2FDF91CF91F4
:1006F0001F910C941E03569A209A579A2FEF83EF5E
:1007000091E0215080409040E1F700C0000060E09F
:1007100083E00E94E1028FE19EE40197F1F700C0BF
:10072000000060E083E00E94E10287E592E001972B
:10073000F1F700C0000060E083E00E94E10260E0A9
:1007400082E00E94E10288E20E94FA028CE00E94AC
:10075000FA0281E00E94FA028FE39FE10197F1F72C
:1007600000C0000086E00C94FA02815008F408955D
:10077000EFE7FCE03197F1F700C00000F6CF81E031
:100780000E94FD030C94B50380E00E94FD0380935A
:10079000B4000895FC0184E0808388E0818380E1D7
:1007A000828380E283838AB18C638AB90C94F603D6
:1007B000FC01662319F0613059F008958BB19381E3
:1007C000892B8BB99BB18381809589238BB908953F
:1007D0008BB19281892B8BB99BB18281F5CF80E45B
:1007E00080937C0087E880937A00089583E2809369
:1007F000B00082E08093B100089590917C00907FDA
:100800008F70982B90937C0080917A008064809305
:100810007A0080917A0086FDFCCF2091780030919B
:100820007900C90196958795969587952C3F334019
:1008300010F08EEF90E00895FC01818186230895E9
:10084000CF93DF93CDB7DEB729970FB6F894DEBF0D
:100850000FBECDBFFC01618170E0FE01319627E043
:1008600030E0AF01CB01022E02C0959587950A9426
:10087000E2F781709927C09681932150310990F752
:10088000198660E081E00E94500329960FB6F89423
:10089000DEBF0FBECDBFDF91CF9108952C982C9A6B
:1008A000299898E080E0880F1B9981602A9A2A98FD
:1008B0009150C9F7299A80950895CF93DF93EC0161
:1008C00084B1866184B923980E944E048883898309
:1008D000DF91CF9108951F93CF93DF93EC0118819F
:1008E0000E944E04982F8883812F80958923E9F0F8
:1008F00030E020E090E0E1E0F0E0AC01022E02C048
:10090000559547950A94E2F740FF09C04981BF0118
:10091000022E01C0660F0A94EAF7462749832F5F2B
:100920003F4F2830310549F781E0DF91CF911F918A
:10093000089500D000D000D0CDB7DEB7CE0101962B
:100940000E94CA03CE0105960E945D040E94EF0337
:100950000E947B030E943003CE0105960E94200472
:100960001D9908C0BE016B5F7F4FCE0101960E94AA
:10097000F501F2CF41E0BE016F5F7F4FCE010596DA
:100980000E945402E9CF002E083090F0982F872F54
:10099000762F652F542F432F322F22270850F4CF64
:1009A000220F331F441F551F661F771F881F991F73
:1009B0000A95B2F7002D089597FD1094002E083087
:1009C00098F00850232F342F452F562F672F782F5C
:1009D000892F912DF4CF15949795879577956795E5
:1009E00057954795379527950A95AAF71124002D15
:1009F00008950024A7FD00942A17300540055005EE
:100A000060057005800590050895BB274A3031F4D4
:100A1000992322F4BDE2909581959F4F0C94110586
:100A2000BB27FB015527AA27880F991FAA1FA417C8
:100A300010F0A41B83955051B9F7A05DAA3308F0BC
:100A4000A95DA193009779F7B111B1931192CB01F0
:100A50000C942A05DC01FC01672F71917723E1F7E3
:100A6000329704C07C916D9370836291AE17BF077B
:080A7000C8F30895F894FFCFCC
:100A78004C454473206F666600004C454473206FF4
:080A88006E2100002020200077
:00000001FF
