:100000000C9434000C9449000C9449000C94490061
:100010000C9449000C9449000C9449000C9449003C
:100020000C9449000C9449000C9449000C9449002C
:100030000C9449000C9449000C9449000C9449001C
:100040000C9449000C9449000C9449000C9449000C
:100050000C9449000C9449000C9449000C944900FC
:100060000C9449000C94490011241FBECFEFD8E036
:10007000DEBFCDBF11E0A0E0B1E0EAE7F8E002C0EA
:1000800005900D92A031B107D9F70E948D030C9411
:100090003B040C940000FC018BB19381892B8BB93C
:1000A0009BB18381809589238BB90895815008F491
:1000B0000895EFE7FCE03197F1F700C00000F6CFBC
:1000C00083E00E94D5020C94560080E00E94D50285
:1000D0008093B4000895FC0184E0808388E08183EC
:1000E00080E1828380E283838AB18C638AB90C9435
:1000F0008603FC01662319F0613019F008950C9411
:100100004B008BB19281892B8BB99BB182818095F9
:1001100089238BB90895AF92BF92CF92DF92EF926D
:10012000FF920F931F93CF93DF936C01B62EA72EF0
:100130007901EA0183E0CC0FDD1F8A95E1F710E039
:1001400000E00C171D0774F061E0C601DF91CF914C
:100150001F910F91FF90EF90DF90CF90BF90AF90E5
:100160000C9479008B2D9A2D0E944203811113C0AB
:100170000E946500F60180819BB1E114F10441F019
:10018000892B8BB9C6010E944B000F5F1F4FD9CF3F
:1001900080958923F6CFDF91CF911F910F91FF902A
:1001A000EF90DF90CF90BF90AF9008952F923F9245
:1001B0004F925F926F927F928F929F92AF92BF9277
:1001C000CF92DF92EF92FF920F931F93CF93DF9323
:1001D000CDB7DEB760970FB6F894DEBF0FBECDBFC8
:1001E00089839A836D877E872A87440F440F440F43
:1001F0004C83222309F44FC021E030E040E050E07E
:1002000060E070E080E090E0AC81A150BB0B8D011C
:100210000E94E4032F87388B942E852E762E672E2E
:10022000582E492E212C312C1B821D821E821F82AA
:1002300018861986FC81EF2FF0E0FC87EB872C8174
:1002400030E040E050E060E070E080E090E051019C
:10025000CB80DD80EE80FF80088519850E94260412
:1002600009F018F560960FB6F894DEBF0FBECDBF4B
:10027000DF91CF911F910F91FF90EF90DF90CF9082
:10028000BF90AF909F908F907F906F905F904F90B6
:100290003F902F900895B1E0BF87188A912C812C50
:1002A000712C612C512C412CBDCF8D859E850E94D7
:1002B00042038111D7CF0E946500EB84FC8481E06A
:1002C000E81AF108EFEFEE16FE0681F561E089818C
:1002D0009A810E9479000E946000FA852F853889F2
:1002E000492D582D672D762D852D942D01E0FF2366
:1002F00009F445C00E94FF032F87388B942E852E6A
:10030000762E672E582E492E91014B815D816E818C
:100310007F8188859985A1E00E941A0419014B8389
:100320005D836E837F838887998789CFA981BA810E
:10033000EC912F853889492D582D672D762D852DE7
:10034000942D0E2D0E94FF03217030E040E050E01C
:1003500060E070E080E090E0A0E00E942F0459F09F
:100360008BB1E82BEBB989819A810E944B00B1E0F7
:10037000EB1AF108A7CF8BB1E095E823F3CF0E94E9
:10038000E403BACF2F923F924F925F926F927F9287
:100390008F929F92AF92BF92CF92DF92EF92FF9295
:1003A0000F931F93CF93DF93CDB7DEB72D970FB683
:1003B000F894DEBF0FBECDBF4C016A877B874983AF
:1003C0005A83A22EE42FEE0FEE0FEE0F2223D1F16F
:1003D0002FEF30E040E050E060E070E080E090E03F
:1003E000AE2FA850BB0B8D010E94E4032C873D87E4
:1003F000142FF52EE62ED72EC82EB92E312C212CF7
:100400008E2F90E099878887A981BA812A163B06AA
:100410001CF12D960FB6F894DEBF0FBECDBFDF9155
:10042000CF911F910F91FF90EF90DF90CF90BF90F1
:10043000AF909F908F907F906F905F904F903F9084
:100440002F900895BFEFBC871D8610E0F12CE12CA2
:10045000D12CC12CB12CD2CF8A859B850E9442031E
:100460008111D7CF0E9465000C859D859B831C83DD
:10047000FD82EE822601BF82712C612C88859985D0
:1004800068167906FCF061E0C4010E9479000E94C0
:1004900060002C853D85412F5F2D6E2D7D2D8C2D8F
:1004A0009B2D08E0AA20F1F10E94FF032C873D87D5
:1004B000142FF52EE62ED72EC82EB92E9FEF291A0F
:1004C000390AA2CFD401EC91202F217030E040E016
:1004D00050E060E070E080E090E0A0E00E942F0437
:1004E000E9F08BB1E82BEBB9C4010E944B00202F3F
:1004F0003B814C815D816E81752D842D9F8101E052
:100500000E94FF03022F3B834C835D836E83572E33
:10051000482E9F83BFEF6B1A7B0AB0CF8BB1E0955B
:10052000E823E1CF0E94E403C1CF0F931F93CF9341
:10053000DF938C01D62FC72F4230B1F04330F1F05A
:10054000413071F562E070E08D2F9C2F0E941A03FC
:10055000282F42E050E06D2F7C2FC801DF91CF9112
:100560001F910F910C94D60062E070E08D2F9C2FAC
:100570000E941A03282F43E050E0EDCF62E070E0C4
:100580008D2F9C2F0E941A03282F44E050E06D2FDE
:100590007C2FC801DF91CF911F910F910C94C20164
:1005A000DF91CF911F910F91089590917C00907FE2
:1005B0008F70982B90937C0080917A008064809358
:1005C0007A0090917A00892F807496FDFACF40913D
:1005D0007800509179009A013695279536952795A0
:1005E0004C3F534028F42531310518F0822F0895EF
:1005F0008EEF089582E00E94D502282F30E08431EA
:1006000028F0283C310520F08EE1089582E008951D
:1006100084E0089581E00E94D502282F30E08233E3
:1006200028F02639310520F083E0089581E008950F
:1006300082E00895DC016530710568F4FB01EE0F7E
:10064000FF1FE60FF71FE80FF91F1F969C9181818E
:10065000982381E009F480E00895FC01808142360E
:1006600031F493B1692359F0822B80830895433686
:1006700011F496B1F7CF443611F499B1F3CF209528
:100680008223F3CFDF92EF92FF920F931F93CF93CA
:10069000DF93EC01DF848C017C014FE0E40EF11C60
:1006A000F801218142816081C7010E942D030D5F05
:1006B0001F4F0E151F05A1F70E940A039F859F7902
:1006C000F0E28F9F90011124922B9F8781E09D1172
:1006D00001C080E0DF91CF911F910F91FF90EF90CB
:1006E000DF9008958295869583700895DC0180E1FE
:1006F000E0E0F1E001900D928A95E1F7089580E441
:1007000080937C0087E880937A00089583E2809349
:10071000B00082E08093B1000895CDB7DEB7649752
:100720000FB6F894DEBF0FBECDBFCE0101960E947A
:100730007603CE0141960E946B000E947F0370E019
:1007400060E0CE0101960E941A0330E020E046E00E
:1007500050E0882389F161E070E0CE0101960E94AB
:100760001A03882329F163E070E0CE0101960E940C
:100770001A03882361F088890E947203482FBE0102
:100780006F5F7F4FCE0141960E949502D8CF62E005
:1007900070E0CE0101960E941A03282F44E050E039
:1007A000BE016F5F7F4FCE0141960E94D600C7CF3A
:1007B00021E030E044E050E0BE016F5F7F4FCE01AA
:1007C00041960E948B00BBCF002E083090F0982FEE
:1007D000872F762F652F542F432F322F2227085033
:1007E000F4CF220F331F441F551F661F771F881F2A
:1007F000991F0A95B2F7002D089597FD1094002EC9
:10080000083098F00850232F342F452F562F672F8C
:10081000782F892F912DF4CF1594979587957795FB
:10082000679557954795379527950A95AAF7112407
:10083000002D08950024A7FD00942A0F301D401DAF
:10084000501D601D701D801D901D08952A153B05CB
:100850004C055D056E057F0580079107089500240E
:10086000A7FD00942A173005400550056005700566
:0A087000800590050895F894FFCF6D
:10087A002001621002620804620408620210620027
:00000001FF
