:100000000C9434000C943E000C943E000C943E0082
:100010000C943E000C943E000C943E000C943E0068
:100020000C943E000C943E000C943E000C943E0058
:100030000C943E000C943E000C943E000C943E0048
:100040000C943E000C943E000C943E000C943E0038
:100050000C943E000C943E000C943E000C943E0028
:100060000C943E000C943E0011241FBECFEFD8E04C
:10007000DEBFCDBF0E94B6030C9427040C94000091
:100080007F928F929F92AF92BF92CF92DF92EF9228
:10009000FF920F931F93CF93DF938C01962E872EA1
:1000A000B22ED42FDD0FDD0FDD0FC0E0AA24AA94FD
:1000B000AD0ECD130EC0DF91CF911F910F91FF9028
:1000C000EF90DF90CF90BF90AF909F908F907F90F8
:1000D0000895892D982D0E9488038111ECCFEA2C78
:1000E000EC1AB11001C0EC2E7A2CCA2C0A2C000C90
:1000F000DD08F12C77FE08C061E0C8010E94EF0224
:100100000E94D602CF5FD5CFF80180819BB1EC145D
:10011000FD0459F4892B8BB960E0C8010E94EF02FD
:100120007A94F1E0CF1AD108E5CF80958923F3CFF7
:100130002F923F924F925F926F927F928F929F92F7
:10014000AF92BF92CF92DF92EF92FF920F931F93E5
:10015000CF93DF93CDB7DEB72D970FB6F894DEBF00
:100160000FBECDBF4C016A877B8749835A83A22E7D
:10017000E42FEE0FEE0FEE0F2223D1F12FEF30E040
:1001800040E050E060E070E080E090E0AE2FA850EA
:10019000BB0B8D010E94E5032C873D87142FF52EA4
:1001A000E62ED72EC82EB92E312C212C8E2F90E082
:1001B00099878887A981BA812A163B061CF12D965A
:1001C0000FB6F894DEBF0FBECDBFDF91CF911F9168
:1001D0000F91FF90EF90DF90CF90BF90AF909F90E6
:1001E0008F907F906F905F904F903F902F900895E9
:1001F000BFEFBC871D8610E0F12CE12CD12CC12C67
:10020000B12CD2CF8A859B850E9488038111D7CFDC
:100210000E94DB020C859D859B831C83FD82EE8200
:100220002601BF82712C612C888599856816790614
:1002300004F161E0C4010E94EF020E94D6022C8505
:100240003D85412F5F2D6E2D7D2D8C2D9B2D08E042
:10025000AA2009F43FC00E9400042C873D87142F78
:10026000F52EE62ED72EC82EB92E9FEF291A390A61
:10027000A1CFD401EC91202F217030E040E050E07C
:1002800060E070E080E090E0A0E00E941B04F1F0EC
:100290008BB1E82BEBB960E0C4010E94EF02202F84
:1002A0003B814C815D816E81752D842D9F8101E0A4
:1002B0000E940004022F3B834C835D836E83572E84
:1002C000482E9F83BFEF6B1A7B0AAECF8BB1E095B0
:1002D000E823E0CF0E94E503C0CFAF92BF92CF9258
:1002E000DF92EF92FF920F931F93CF93DF936C01F6
:1002F000B62EA72E7901EA0183E0CC0FDD1F8A9587
:10030000E1F710E000E00C171D0774F061E0C60192
:10031000DF91CF911F910F91FF90EF90DF90CF90E1
:10032000BF90AF900C94EF028B2D9A2D0E94880302
:10033000811114C00E94DB02F60180819BB1E1149F
:10034000F10449F0892B8BB960E0C6010E94EF02ED
:100350000F5F1F4FD8CF80958923F5CFDF91CF91C5
:100360001F910F91FF90EF90DF90CF90BF90AF90D3
:100370000895FF920F931F93CF93DF93D82FC92F28
:10038000F62E172F042F61E00E943903811110C04F
:1003900021E030E044E050E06D2F7C2F8F2D912F35
:1003A0000E946D01DF91CF911F910F91FF900895F1
:1003B00064E08D2F9C2F0E94390360E8811111C0E9
:1003C0008D2F9C2F0E943903282F44E06D2F7C2F06
:1003D0008F2D912FDF91CF911F910F91FF900C9452
:1003E00040008D2F9C2F0E943903282F00E044E00D
:1003F00050E06D2F7C2F8F2D912F0E949800D2CF2F
:1004000027E030E090E0AC01022E02C05595479500
:100410000A94E2F740FF09C05E9A5F9A5F98215004
:10042000310988F7289A289808955E98F6CFCF93D7
:10043000C82FC295C07F6111C1608C2F84600E945B
:10044000000285E08A95F1F700008C2F0E940002DF
:1004500087EC90E00197F1F700C00000CF9108957C
:10046000CF93C82F60E082958F700E94170260E0E2
:100470008C2F8F700E941702C150C23030F48FE36E
:100480009FE10197F1F700C00000CF910895CF934D
:10049000C82F61E082958F700E94170261E08C2F57
:1004A0008F70CF910C941702CF93DF93EC01899159
:1004B000811103C0DF91CF9108950E944702F7CFC9
:1004C000811180E4860F80680C94300281E00E94E4
:1004D00030028FE39FE10197F1F700C0000008951B
:1004E0000F931F93CF93DF93182F062FD42FC52F71
:1004F0000E946602602F812F0E9460028D2F9C2F28
:10050000DF91CF911F910F910C945402CF93DF9301
:10051000D42FC52F0E9460028D2F9C2FDF91CF9189
:100520000C945402569A209A579A2FEF83EF91E039
:10053000215080409040E1F700C0000060E083E07F
:100540000E9417028FE19EE40197F1F700C00000BE
:1005500060E083E00E94170287E592E00197F1F7DF
:1005600000C0000060E083E00E94170260E082E0CB
:100570000E94170288E20E9430028CE00E94300242
:1005800081E00E9430028FE39FE10197F1F700C004
:10059000000086E00C943002815008F40895EFE7E3
:1005A000FCE03197F1F700C00000F6CF81E00E9437
:1005B00014030C94CC0280E00E9414038093B400D6
:1005C0000895FC0184E0808388E0818380E1828358
:1005D00080E283838AB18C638AB90C940D03FC0199
:1005E000662319F0613059F008958BB19381892BFE
:1005F0008BB99BB18381809589238BB908958BB189
:100600009281892B8BB99BB18281F5CF80E4809355
:100610007C0087E880937A00089583E28093B0009D
:1006200082E08093B100089590917C00907F8F705C
:10063000982B90937C0080917A00806480937A005C
:1006400090917A00892F807496FDFACF40917800BE
:10065000509179009A0136952795369527954C3F0C
:10066000534028F42531310518F0822F08958EEF7C
:100670000895FC01818186230895CF93DF93CDB740
:10068000DEB729970FB6F894DEBF0FBECDBFFC01D1
:10069000618170E0FE01319627E030E0AF01CB01CF
:1006A000022E02C0959587950A94E2F781709927EA
:1006B000C09681932150310990F7198660E080E05F
:1006C0000E94860229960FB6F894DEBF0FBECDBFFA
:1006D000DF91CF9108952C982C9A299898E080E08A
:1006E000880F1A9981602B9A2B989150C9F7299AF3
:1006F00080950895CF93DF93EC0184B18A6184B92A
:1007000022980E946B0388838983DF91CF9108959B
:100710001F93CF93DF93EC0118810E946B03982FF6
:100720008883812F80958923E9F030E020E090E0F4
:10073000E1E0F0E0AC01022E02C0559547950A9425
:10074000E2F740FF09C04981BF01022E01C0660FD8
:100750000A94EAF7462749832F5F3F4F2830310537
:1007600049F781E0DF91CF911F91089500D000D02B
:1007700000D0CDB7DEB7CE0101960E94E102CE01D6
:1007800005960E947A030E9406030E9492020E942C
:100790006602CE0105960E943D031D990DC001E041
:1007A00030E020E044E050E0BE016B5F7F4FCE01BF
:1007B00001960E946D01EDCF41E0BE016F5F7F4F5A
:1007C000CE0105960E94B901E4CF002E083090F0CA
:1007D000982F872F762F652F542F432F322F2227C4
:1007E0000850F4CF220F331F441F551F661F771F79
:1007F000881F991F0A95B2F7002D089597FD109450
:10080000002E083098F00850232F342F452F562FF4
:10081000672F782F892F912DF4CF15949795879571
:100820007795679557954795379527950A95AAF730
:100830001124002D08950024A7FD00942A173005E7
:100840004005500560057005800590050895F894F1
:02085000FFCFD8
:00000001FF
