:100000000C9434000C9449000C9449000C94490061
:100010000C9449000C9449000C9449000C9449003C
:100020000C9449000C9449000C9449000C9449002C
:100030000C9449000C9449000C9449000C9449001C
:100040000C9449000C9449000C9449000C9449000C
:100050000C9449000C9449000C9449000C944900FC
:100060000C9449000C94490011241FBECFEFD8E036
:10007000DEBFCDBF11E0A0E0B1E0E0E7FBE002C0F1
:1000800005900D92A835B107D9F70E9409050C9487
:10009000B6050C940000DC0181E2E0E0F1E00190A3
:1000A0000D928A95E1F784B18A6184B92298089506
:1000B0002C9825E02A95F1F700002C9A299898E0D1
:1000C00080E0880F1A9981602B9A25E02A95F1F734
:1000D00000002B989150A9F7299A80950895AF9226
:1000E000BF92CF92DF92EF92FF920F931F93CF9325
:1000F000DF93CDB7DEB72B970FB6F894DEBF0FBEF8
:10010000CDBF7C010E945800D82EF70180A18D152B
:1001100009F451C0FE01319627E030E0AF016D2DAA
:1001200070E0CB01022E02C0959587950A94E2F704
:1001300081709927C09681932150310990F71986D3
:1001400060E080E00E94720187015701E0E2AE0E9C
:10015000B11CCC24C394F8018081982F9D2121F1FA
:10016000F70190A1892301F5F80181818C25818314
:100170004281538160E081E00E9472014DE351E0D1
:1001800063E081E00E947201F80181814AE0BE01D2
:10019000665F7F4F90E00E948105AE01465F5F4F32
:1001A00069E081E00E9472010C5F1F4F0A151B0578
:1001B00091F6F701D0A22B960FB6F894DEBF0FBED2
:1001C000CDBFDF91CF911F910F91FF90EF90DF9006
:1001D000CF90BF90AF90089527E030E090E0AC0161
:1001E000022E02C0559547950A94E2F740FF09C0D8
:1001F0005E9A5F9A5F982150310988F7289A28986B
:1002000008955E98F6CFCF93C82FC295C07F611135
:10021000C1608C2F84600E94EC0085E08A95F1F724
:1002200000008C2F0E94EC0087EC90E00197F1F722
:1002300000C00000CF910895CF93C82F60E0829551
:100240008F700E94030160E08C2F8F700E94030169
:10025000C150C23030F48FE39FE10197F1F700C045
:100260000000CF910895CF93C82F61E082958F70E1
:100270000E94030161E08C2F8F70CF910C940301D9
:10028000CF93DF93EC018991811103C0DF91CF916E
:1002900008950E943301F7CF811180E4860F8068B2
:1002A0000C941C0181E00E941C018FE39FE10197E7
:1002B000F1F700C0000008950F931F93CF93DF93D1
:1002C000182F062FD42FC52F0E945201602F812F87
:1002D0000E944C018D2F9C2FDF91CF911F910F9188
:1002E0000C944001CF93DF93D42FC52F0E944C0173
:1002F0008D2F9C2FDF91CF910C944001569A209A1C
:10030000579A2FEF83EF91E0215080409040E1F722
:1003100000C0000060E083E00E9403018FE19EE4E2
:100320000197F1F700C0000060E083E00E94030144
:1003300087E592E00197F1F700C0000060E083E0FC
:100340000E94030160E082E00E94030188E20E94B3
:100350001C018CE00E941C0181E00E941C018FE3C3
:100360009FE10197F1F700C0000086E00C941C01AA
:10037000FC018BB19381892B8BB99BB183818095D3
:1003800089238BB90895815008F40895EFE7FCE0C4
:100390003197F1F700C00000F6CF83E00E940A0415
:1003A0000C94C30180E00E940A048093B400089575
:1003B000FC0184E0808388E0818380E1828380E2A5
:1003C00083838AB18C638AB90C940205FC0166238D
:1003D00019F0613019F008950C94B8018BB1928135
:1003E000892B8BB99BB18281809589238BB9089524
:1003F0009F92AF92BF92CF92DF92EF92FF920F93B4
:100400001F93CF93DF93EC01162F972E59017A019A
:1004100083E0EE0CFF1C8A95E1F7D12CC12CCE14A1
:10042000DF047CF061E0CE01DF91CF911F910F914D
:10043000FF90EF90DF90CF90BF90AF909F900C9483
:10044000E601602F812F992D0E946E04811113C047
:100450000E94D20188819BB1A114B10449F0892B7B
:100460008BB9CE010E94B8018FEFC81AD80AD7CF36
:1004700080958923F5CFDF91CF911F910F91FF9048
:10048000EF90DF90CF90BF90AF909F9008952F9204
:100490003F924F925F926F927F928F929F92AF9214
:1004A000BF92CF92DF92EF92FF920F931F93CF9361
:1004B000DF93CDB7DEB761970FB6F894DEBF0FBEFE
:1004C000CDBF89839A836E877F872A870B87440FE6
:1004D000440F440F4C83222309F44FC021E030E045
:1004E00040E050E060E070E080E090E0AC81A1503E
:1004F000BB0B8D010E942A05288B398B942E852EEB
:10050000762E672E582E492E212C312C1B821D82CF
:100510001E821F8218861986FC81EF2FF0E0FD876E
:10052000EC872C8130E040E050E060E070E080E05B
:1005300090E05101CB80DD80EE80FF800885198539
:100540000E946C0509F018F561960FB6F894DEBFAD
:100550000FBECDBFDF91CF911F910F91FF90EF9014
:10056000DF90CF90BF90AF909F908F907F906F90D3
:100570005F904F903F902F900895B1E0B88B198A0B
:10058000912C812C712C612C512C412CBDCF6B8571
:100590008E859F850E946E048111D6CF0E94D20164
:1005A000EC84FD8481E0E81AF108EFEFEE16FE0618
:1005B00081F561E089819A810E94E6010E94CD0166
:1005C000FA8528893989492D582D672D762D852D55
:1005D000942D01E0FF2309F445C00E944505288BB6
:1005E000398B942E852E762E672E582E492E91010A
:1005F0004B815D816E817F8188859985A1E00E9414
:10060000600519014B835D836E837F83888799879B
:1006100088CFA981BA81EC9128893989492D582D33
:10062000672D762D852D942D0E2D0E944505217068
:1006300030E040E050E060E070E080E090E0A0E07A
:100640000E94750559F08BB1E82BEBB989819A812D
:100650000E94B801B1E0EB1AF108A7CF8BB1E09589
:10066000E823F3CF0E942A05BACF2F923F924F92F0
:100670005F926F927F928F929F92AF92BF92CF9232
:10068000DF92EF92FF920F931F93CF93DF93CDB73B
:10069000DEB72E970FB6F894DEBF0FBECDBF4C016C
:1006A0006B877C8749835A83A22E0887E42FEE0F3D
:1006B000EE0FEE0F2223D1F12FEF30E040E050E0BB
:1006C00060E070E080E090E0AE2FA850BB0B8D01A1
:1006D0000E942A052D873E87142FF52EE62ED72E51
:1006E000C82EB92E312C212C8E2F90E09A87898725
:1006F000A981BA812A163B061CF12E960FB6F894F2
:10070000DEBF0FBECDBFDF91CF911F910F91FF9044
:10071000EF90DF90CF90BF90AF909F908F907F90A1
:100720006F905F904F903F902F900895BFEFBD87DF
:100730001E8610E0F12CE12CD12CC12CB12CD2CF93
:1007400068858B859C850E946E048111D6CF0E949E
:10075000D2010D859E859B831C83FD82EE8226013E
:10076000BF82712C612C89859A8568167906FCF008
:1007700061E0C4010E94E6010E94CD012D853E8505
:10078000412F5F2D6E2D7D2D8C2D9B2D08E0AA20F5
:10079000F1F10E9445052D873E87142FF52EE62E98
:1007A000D72EC82EB92E9FEF291A390AA1CFD4010E
:1007B000EC91202F217030E040E050E060E070E0EC
:1007C00080E090E0A0E00E947505E9F08BB1E82B95
:1007D000EBB9C4010E94B801202F3B814C815D819F
:1007E0006E81752D842D9F8101E00E944505022FA9
:1007F0003B834C835D836E83572E482E9F83BFEFD0
:100800006B1A7B0AB0CF8BB1E095E823E1CF0E9451
:100810002A05C1CF90917C00907F8F70982B909388
:100820007C0080917A00806480937A0090917A00B5
:10083000892F807496FDFACF40917800509179000D
:100840009A0136952795369527954C3F534028F4C5
:100850002531310518F0822F08958EEF089582E03A
:100860000E940A04282F30E0843128F0283C31050A
:1008700020F08EE1089582E0089584E0089581E0FB
:100880000E940A04282F30E0823328F026393105EF
:1008900020F083E0089581E0089582E00895FC014E
:1008A000672B29F493818181982381E009F480E00A
:1008B0000895FC018081423631F493B1692359F0E7
:1008C000822B80830895433611F496B1F7CF4436D6
:1008D00011F499B1F3CF20958223F3CFEF92FF92D9
:1008E0000F931F93CF93DF93CDB7DEB72D970FB63E
:1008F000F894DEBF0FBECDBF8C01FC01E3802181E7
:100900004281608103960E9459040E943F04F801CD
:1009100093819F79F0E28F9F90011124892F822B80
:10092000F8018383FF24F3948E1101C0F12C8E15FE
:1009300009F441C00E94520160E080E00E944C0135
:1009400085E491E00E94400160E081E00E944C015A
:10095000F801638170E0FE01319647E050E0CF017D
:100960009B01042E02C0359527950A94E2F7217069
:100970003327205D3F4F21934150510988F7198655
:100980000E94400169E081E00E944C0186E591E00F
:100990000E9440016BE081E00E944C01F8018381DC
:1009A0004AE0BE01665F7F4F90E00E948105CE0164
:1009B0000A960E9440018F2D2D960FB6F894DEBF47
:1009C0000FBECDBFDF91CF911F910F91FF90EF90A0
:1009D00008958295869583700895409121015091E4
:1009E00022016091230170912401FC014083518315
:1009F00062837383089580E480937C0087E880930A
:100A00007A00089583E28093B00082E08093B10081
:100A10000895CDB7DEB7A9970FB6F894DEBF0FBE25
:100A2000CDBFCE0186960E94ED04CE0101960E94B4
:100A30004B00CE0182960E94D8010E94FB040E94C6
:100A40007E010E9452010E94D201CE0101960E94B5
:100A50006F00F9CF002E083090F0982F872F762F57
:100A6000652F542F432F322F22270850F4CF220F07
:100A7000331F441F551F661F771F881F991F0A9534
:100A8000B2F7002D089597FD1094002E083098F0CD
:100A90000850232F342F452F562F672F782F892F5B
:100AA000912DF4CF159497958795779567955795E0
:100AB0004795379527950A95AAF71124002D089593
:100AC0000024A7FD00942A0F301D401D501D601DFD
:100AD000701D801D901D08952A153B054C055D0570
:100AE0006E057F058007910708950024A7FD0094F7
:100AF0002A173005400550056005700580059005F2
:100B00000895BB274A3031F4992322F4BDE2909531
:100B100081959F4F0C948D05BB27FB015527AA2774
:100B2000880F991FAA1FA41710F0A41B839550517A
:100B3000B9F7A05DAA3308F0A95DA193009779F7F2
:100B4000B111B1931192CB010C94A605DC01FC010B
:100B5000672F71917723E1F7329704C07C916D93F1
:100B600070836291AE17BF07C8F30895F894FFCF62
:100B7000010025010200280104002B0108002E01BC
:100B800010003101200034014000370180003A019B
:100B90000020016200743100743200743300743438
:100BA0000074350074360074370074380073746153
:100BB00074653A20007374617465206269746669B3
:080BC000656C64733A007C00CF
:00000001FF
