:100000000C9434000C9449000C9449000C94490061
:100010000C9449000C9449000C9449000C9449003C
:100020000C9449000C9449000C9449000C9449002C
:100030000C9449000C9449000C9449000C9449001C
:100040000C9449000C9449000C9449000C9449000C
:100050000C9449000C9449000C9449000C944900FC
:100060000C9449000C94490011241FBECFEFD8E036
:10007000DEBFCDBF11E0A0E0B1E0E4EAFCE002C0E9
:1000800005900D92A634B107D9F70E9444050C944F
:1000900050060C94000027E030E090E0AC01022E06
:1000A00002C0559547950A94E2F740FF09C05E9A51
:1000B0005F9A5F982150310988F7289A2898089507
:1000C0005E98F6CFCF93C82FC295C07F6111C160F3
:1000D0008C2F84600E944B0085E08A95F1F7000028
:1000E0008C2F0E944B0087EC90E00197F1F700C045
:1000F0000000CF910895CF93C82F60E082958F7054
:100100000E94620060E08C2F8F700E946200C150DC
:10011000C23030F48FE39FE10197F1F700C0000097
:10012000CF910895CF93C82F61E082958F700E9480
:10013000620061E08C2F8F70CF910C946200CF939E
:10014000DF93EC018991811103C0DF91CF91089574
:100150000E949200F7CF811180E4860F80680C9492
:100160007B0081E00E947B008FE39FE10197F1F724
:1001700000C0000008950F931F93CF93DF93182FB3
:10018000062FD42FC52F0E94B100602F812F0E940F
:10019000AB008D2F9C2FDF91CF911F910F910C946D
:1001A0009F00CF93DF93D42FC52F0E94AB008D2FDC
:1001B0009C2FDF91CF910C949F00569A209A579ACA
:1001C0002FEF83EF91E0215080409040E1F700C095
:1001D000000060E083E00E9462008FE19EE40197EE
:1001E000F1F700C0000060E083E00E94620087E554
:1001F00092E00197F1F700C0000060E083E00E9408
:10020000620060E082E00E94620088E20E947B005F
:100210008CE00E947B0081E00E947B008FE39FE1E5
:100220000197F1F700C0000086E00C947B00FC0110
:100230008BB19381892B8BB99BB183818095892365
:100240008BB90895815008F40895EFE7FCE03197E9
:10025000F1F700C00000F6CF83E00E9471040C9417
:10026000220180E00E9471048093B4000895FC0193
:1002700084E0808388E0818380E1828380E28383DD
:100280008AB18C638AB90C943D05FC01662319F090
:10029000613019F008950C9417018BB19281892B6C
:1002A0008BB99BB18281809589238BB908958F92F8
:1002B0009F92AF92BF92CF92DF92EF92FF920F93F5
:1002C000CF93DF93EC0159017A0183E0EE0CFF1C20
:1002D0008A95E1F7D12CC12C4B0182E2880E911C4A
:1002E000CE14DF047CF061E0CE01DF91CF910F915D
:1002F000FF90EF90DF90CF90BF90AF909F908F9046
:100300000C944501602FC4010E94D504811113C0D3
:100310000E94310188819BB1A114B10449F0892B5D
:100320008BB9CE010E9417018FEFC81AD80AD8CF17
:1003300080958923F5CFDF91CF910F91FF90EF90BA
:10034000DF90CF90BF90AF909F908F9008952F92A5
:100350003F924F925F926F927F928F929F92AF9255
:10036000BF92CF92DF92EF92FF920F931F93CF93A2
:10037000DF93CDB7DEB763970FB6F894DEBF0FBE3D
:10038000CDBF89839A831B012C870D87440F440FAF
:10039000440F4C83222309F454C021E030E040E0B4
:1003A00050E060E070E080E090E0AC81A150BB0BD9
:1003B0008D010E94C4052A8B3B8B942E852E762EB0
:1003C000672E582E492E1B821D821E821F82188680
:1003D00019861A861B86F101B296FF87EE879C81EB
:1003E000892F90E0998B888B2C8130E040E050E0A1
:1003F00060E070E080E090E0AB80BD80CE80DF8088
:10040000E884F9840A851B850E94060609F018F520
:1004100063960FB6F894DEBF0FBECDBFDF91CF91CC
:100420001F910F91FF90EF90DF90CF90BF90AF9012
:100430009F908F907F906F905F904F903F902F9004
:100440000895B1E0BA8B1B8A912C812C712C612C00
:10045000512C412CB8CF6D858E859F850E94D50487
:100460008111D6CF67E0C1010E9456048111D0CF1F
:1004700066E0C1010E9456048111CACF0E94310179
:10048000E888F988A1E0EA1AF108EFEFEE16FE0617
:1004900091F561E089819A810E9445010E942C01B9
:1004A000FC852A893B89492D582D672D762D852D70
:1004B000942D01E0FF2309F453C00E94DF052A8B2D
:1004C0003B8B942E852E762E672E582E492E2B810F
:1004D0003D814E815F81688579858A859B85A1E014
:1004E0000E94FA052B833D834E835F83688779875B
:1004F0008A879B8779CFA981BA81EC912A893B8928
:10050000492D582D672D762D852D942D0E2D0E9469
:10051000DF05217030E040E050E060E070E080E016
:1005200090E0A0E00E940F06B9F08BB1E82BEBB988
:1005300089819A810E94170167E0C1010E945604D7
:10054000811166CF66E0C1010E945604811160CF1F
:10055000B1E0EB1AF10899CF8BB1E095E823E7CF32
:100560000E94C405ACCF2F923F924F925F926F9240
:100570007F928F929F92AF92BF92CF92DF92EF9233
:10058000FF920F931F93CF93DF93CDB7DEB76097A2
:100590000FB6F894DEBF0FBECDBF4C013B014983BF
:1005A0005A83A22E0A87E42FEE0FEE0FEE0F2223BE
:1005B000F1F12FEF30E040E050E060E070E080E0EB
:1005C00090E0AE2FA850BB0B8D010E94C4052F8771
:1005D000388B142FF52EE62ED72EC82EB92E312C9F
:1005E000212CC30182969C878B87AE2FB0E0BE87FB
:1005F000AD87A981BA812A163B061CF160960FB619
:10060000F894DEBF0FBECDBFDF91CF911F910F9148
:10061000FF90EF90DF90CF90BF90AF909F908F9022
:100620007F906F905F904F903F902F900895BFEF15
:10063000BF87188A10E0F12CE12CD12CC12CB12CF1
:10064000CECF6A858B859C850E94D5048111D6CF3B
:100650000E9431010F85B889BB831C83FD82EE8225
:10066000DF82C886B986512C412C8D859E8548161F
:10067000590634F161E0C4010E9445010E942C0139
:100680002F853889412F5F2D6E2D7D2D8C2D9B2D33
:1006900008E0AA2009F444C00E94DF052F87388BA8
:1006A000142FF52EE62ED72EC82EB92E60E0C301EA
:1006B0000E9456048111A2CF9FEF291A390A99CFBF
:1006C000D401EC91202F217030E040E050E060E058
:1006D00070E080E090E0A0E00E940F06E9F08BB1AE
:1006E000E82BEBB9C4010E941701202F3B814C81FC
:1006F0005D816E817F818885998501E00E94DF059B
:10070000022F3B834C835D836E837F838887998729
:10071000BFEF4B1A5B0AA9CF8BB1E095E823E1CF7D
:100720000E94C405BBCFDC0182E2E0E0F1E0019071
:100730000D928A95E1F784B18A6184B9229808956F
:100740002C9825E02A95F1F700002C9A299898E03A
:1007500080E0880F1A9981602B9A25E02A95F1F79D
:1007600000002B989150A9F7299A80950895AF928F
:10077000BF92CF92DF92EF92FF920F931F93CF938E
:10078000DF93CDB7DEB72B970FB6F894DEBF0FBE61
:10079000CDBF7C010E94A003D82EF70180A18D154A
:1007A00009F451C0FE01319627E030E0AF016D2D14
:1007B00070E0CB01022E02C0959587950A94E2F76E
:1007C00081709927C09681932150310990F719863D
:1007D00060E080E00E94D10087015701E0E2AE0EA8
:1007E000B11CCC24C394F8018081982F9D2121F164
:1007F000F70190A1892301F5F80181818C2581837E
:100800004281538160E081E00E94D1004EE351E0DB
:1008100063E081E00E94D100F80181814AE0BE01DD
:10082000665F7F4F90E00E941B06AE01465F5F4F00
:1008300069E081E00E94D1000C5F1F4F0A151B0583
:1008400091F6F701D0A22B960FB6F894DEBF0FBE3B
:10085000CDBFDF91CF911F910F91FF90EF90DF906F
:10086000CF90BF90AF9008951F93CF93DF93EC018B
:1008700019A10E94A003982F812F8095892399A305
:10088000882381F0FE01AE01405E5F4F2081922FF0
:10089000982319F098A1922798A33496E417F507A6
:1008A000A9F781E0DF91CF911F9108950F931F93D6
:1008B000CF938C01C62F0E943404882371F084E00A
:1008C000C89FF0011124E00FF11FD80190969C9170
:1008D0008081982381E009F480E0CF911F910F91EE
:1008E000089590917C00907F8F70982B90937C005E
:1008F00080917A00806480937A0090917A00892FA9
:10090000807496FDFACF40917800509179009A0159
:1009100036952795369527954C3F534028F4253139
:10092000310518F0822F08958EEF089582E00E941D
:100930007104282F30E0843128F0283C310520F064
:100940008EE1089582E0089584E0089581E00E9498
:100950007104282F30E0823328F02639310520F049
:1009600083E0089581E0089582E00895FC01672BFB
:1009700029F493818181982381E009F480E008952E
:10098000FC018081423631F493B1692359F0822B06
:1009900080830895433611F496B1F7CF443611F4AD
:1009A00099B1F3CF20958223F3CF1F93CF93DF9399
:1009B000EC011B8129814A81688103960E94C00451
:1009C0000E94A6049B819F7940E2849F900111249C
:1009D000922B9B8381E0911301C080E0DF91CF9146
:1009E0001F91089582958695837008954091220104
:1009F000509123016091240170912501FC014083F5
:100A000051836283738308950F931F93CF93DF9372
:100A1000CDB7DEB7A6970FB6F894DEBF0FBECDBF39
:100A20008C01CE0101960E949303CE0183960E9411
:100A3000F60482E2FE013196D80101900D928A956A
:100A4000E1F78BA19CA1ADA1BEA1F80182A393A364
:100A5000A4A3B5A3C801A6960FB6F894DEBF0FBE37
:100A6000CDBFDF91CF911F910F91089580E48093C6
:100A70007C0087E880937A00089583E28093B00039
:100A800082E08093B1000895CDB7DEB7C955D10992
:100A90000FB6F894DEBF0FBECDBFCE018A5A9F4F6E
:100AA0000E94F604CE0187960E949303CE01019620
:100AB0000E940405CE018E5A9F4F0E9437010E946A
:100AC00036050E94DD000E94B100CE0101960E9411
:100AD000340469A170E0FE01E75BFF4F27E030E0DE
:100AE000AF01CB01022E02C0959587950A94E2F7DB
:100AF00081709927C09681932150310990F7FA01AE
:100B0000108660E080E00E94D10070E060E0CE01DD
:100B100083960E94B60481110EC001E030E020E00F
:100B200046E050E0BE016F5F7F4FCE018E5A9F4F6F
:100B30000E945701CACF29A18981822371F0898D32
:100B4000282300E044E050E0BE016F5F7F4FCE01FC
:100B50008E5A9F4F0E94B302B8CF8D8D822371F0C1
:100B6000898D282300E044E050E0BE016F5F7F4F95
:100B7000CE018E5A9F4F0E94A701A7CF01E021E02E
:100B800030E044E050E0CECF002E083090F0982FB7
:100B9000872F762F652F542F432F322F222708506F
:100BA000F4CF220F331F441F551F661F771F881F66
:100BB000991F0A95B2F7002D089597FD1094002E05
:100BC000083098F00850232F342F452F562F672FC9
:100BD000782F892F912DF4CF159497958795779538
:100BE000679557954795379527950A95AAF7112444
:100BF000002D08950024A7FD00942A0F301D401DEC
:100C0000501D601D701D801D901D08952A153B0507
:100C10004C055D056E057F0580079107089500244A
:100C2000A7FD00942A1730054005500560057005A2
:100C3000800590050895BB274A3031F4992322F4AA
:100C4000BDE2909581959F4F0C942706BB27FB0131
:100C50005527AA27880F991FAA1FA41710F0A41BB5
:100C600083955051B9F7A05DAA3308F0A95DA1930F
:100C7000009779F7B111B1931192CB010C94400612
:100C8000DC01FC01672F71917723E1F7329704C0F3
:100C90007C916D9370836291AE17BF07C8F308957E
:040CA000F894FFCFF6
:100CA400010026010200290104002C0108002F0183
:100CB40010003201200035014000380180003B0162
:100CC4000000200162007431007432007433007437
:100CD400340074350074360074370074380073744B
:060CE4006174653A200076
:00000001FF
