:100000000C9434000C9449000C9449000C94490061
:100010000C9449000C9449000C9449000C9449003C
:100020000C9449000C9449000C9449000C9449002C
:100030000C9449000C9449000C9449000C9449001C
:100040000C9449000C9449000C9449000C9449000C
:100050000C9449000C9449000C9449000C944900FC
:100060000C9449000C94490011241FBECFEFD8E036
:10007000DEBFCDBF11E0A0E0B1E0E2E1FBE002C0F5
:1000800005900D92A432B107D9F70E949B040C94FD
:1000900087050C94000027E030E090E0AC01022ED0
:1000A00002C0559547950A94E2F740FF09C05E9A51
:1000B0005F9A5F982150310988F7289A2898089507
:1000C0005E98F6CFCF93C82FC295C07F6111C160F3
:1000D0008C2F84600E944B0085E08A95F1F7000028
:1000E0008C2F0E944B0087EC90E00197F1F700C045
:1000F0000000CF910895CF93C82F60E082958F7054
:100100000E94620060E08C2F8F700E946200C150DC
:10011000C23030F48FE39FE10197F1F700C0000097
:10012000CF910895CF93C82F61E082958F700E9480
:10013000620061E08C2F8F70CF910C946200CF939E
:10014000DF93EC018991811103C0DF91CF91089574
:100150000E949200F7CF811180E4860F80680C9492
:100160007B0081E00E947B008FE39FE10197F1F724
:1001700000C000000895569A209A579A2FEF83EFF7
:1001800091E0215080409040E1F700C0000060E025
:1001900083E00E9462008FE19EE40197F1F700C0C6
:1001A000000060E083E00E94620087E592E0019732
:1001B000F1F700C0000060E083E00E94620060E0B0
:1001C00082E00E94620088E20E947B008CE00E9434
:1001D0007B0081E00E947B008FE39FE10197F1F7B4
:1001E00000C0000086E00C947B00FC018BB1938181
:1001F000892B8BB99BB18381809589238BB9089515
:10020000815008F40895EFE7FCE03197F1F700C062
:100210000000F6CF83E00E9486030C94000180E08A
:100220000E9486038093B4000895FC0184E08083DB
:1002300088E0818380E1828380E283838AB18C635A
:100240008AB90C949404FC01662319F0613019F00A
:1002500008950C94F5008BB19281892B8BB99BB1D9
:100260008281809589238BB908959F92AF92BF9226
:10027000CF92DF92EF92FF920F931F93CF93DF9372
:10028000EC01162F972E59017A0183E0EE0CFF1C2A
:100290008A95E1F7D12CC12CCE14DF047CF061E00B
:1002A000CE01DF91CF911F910F91FF90EF90DF90E2
:1002B000CF90BF90AF909F900C942301602F812F1F
:1002C000992D0E94F303811113C00E940F018881B0
:1002D0009BB1A114B10449F0892B8BB9CE010E94C6
:1002E000F5008FEFC81AD80AD7CF80958923F5CFAC
:1002F000DF91CF911F910F91FF90EF90DF90CF9002
:10030000BF90AF909F9008952F923F924F925F922F
:100310006F927F928F929F92AF92BF92CF92DF9215
:10032000EF92FF920F931F93CF93DF93CDB7DEB77A
:1003300061970FB6F894DEBF0FBECDBF89839A8355
:100340006E877F872A870B87440F440F440F4C83A7
:10035000222309F44FC021E030E040E050E060E0AB
:1003600070E080E090E0AC81A150BB0B8D010E9459
:10037000FB04288B398B942E852E762E672E582ED3
:10038000492E212C312C1B821D821E821F82188631
:100390001986FC81EF2FF0E0FD87EC872C8130E09F
:1003A00040E050E060E070E080E090E05101CB8000
:1003B000DD80EE80FF80088519850E943D0509F0EB
:1003C00018F561960FB6F894DEBF0FBECDBFDF9172
:1003D000CF911F910F91FF90EF90DF90CF90BF9042
:1003E000AF909F908F907F906F905F904F903F90D5
:1003F0002F900895B1E0B88B198A912C812C712C23
:10040000612C512C412CBDCF6B858E859F850E9420
:10041000F3038111D6CF0E940F01EC84FD8481E0AB
:10042000E81AF108EFEFEE16FE0681F561E089812A
:100430009A810E9423010E940A01FA85288939893C
:10044000492D582D672D762D852D942D01E0FF2304
:1004500009F445C00E941605288B398B942E852EF1
:10046000762E672E582E492E91014B815D816E812B
:100470007F8188859985A1E00E94310519014B8310
:100480005D836E837F838887998788CFA981BA81AE
:10049000EC9128893989492D582D672D762D852D88
:1004A000942D0E2D0E941605217030E040E050E0A2
:1004B00060E070E080E090E0A0E00E94460559F026
:1004C0008BB1E82BEBB989819A810E94F500B1E0EC
:1004D000EB1AF108A7CF8BB1E095E823F3CF0E9488
:1004E000FB04BACF2F923F924F925F926F927F920E
:1004F0008F929F92AF92BF92CF92DF92EF92FF9234
:100500000F931F93CF93DF93CDB7DEB72E970FB620
:10051000F894DEBF0FBECDBF4C016B877C8749834B
:100520005A83A22E0887E42FEE0FEE0FEE0F222340
:10053000D1F12FEF30E040E050E060E070E080E08B
:1005400090E0AE2FA850BB0B8D010E94FB042D87BD
:100550003E87142FF52EE62ED72EC82EB92E312C1D
:10056000212C8E2F90E09A878987A981BA812A163B
:100570003B061CF12E960FB6F894DEBF0FBECDBF22
:10058000DF91CF911F910F91FF90EF90DF90CF906F
:10059000BF90AF909F908F907F906F905F904F90A3
:1005A0003F902F900895BFEFBD871E8610E0F12C7D
:1005B000E12CD12CC12CB12CD2CF68858B859C85A8
:1005C0000E94F3038111D6CF0E940F010D859E85F5
:1005D0009B831C83FD82EE822601BF82712C612CDD
:1005E00089859A8568167906FCF061E0C4010E944D
:1005F00023010E940A012D853E85412F5F2D6E2D1E
:100600007D2D8C2D9B2D08E0AA20F1F10E9416056E
:100610002D873E87142FF52EE62ED72EC82EB92E05
:100620009FEF291A390AA1CFD401EC91202F217014
:1006300030E040E050E060E070E080E090E0A0E07A
:100640000E944605E9F08BB1E82BEBB9C4010E948A
:10065000F500202F3B814C815D816E81752D842DAD
:100660009F8101E00E941605022F3B834C835D832E
:100670006E83572E482E9F83BFEF6B1A7B0AB0CF35
:100680008BB1E095E823E1CF0E94FB04C1CFFF923C
:100690000F931F93CF93DF93F82E192FD62FC72FC9
:1006A000022F4230C9F0433009F1413079F462E061
:1006B00070E08D2F9C2F0E94CB03282F42E050E04A
:1006C0006D2F7C2F8F2D912F0E948401DF91CF9170
:1006D0001F910F91FF90089562E070E08D2F9C2F85
:1006E0000E94CB03282F43E050E0EACF62E070E0A5
:1006F0008D2F9C2F0E94CB03282F44E050E06D2FBC
:100700007C2F8F2D912F0E947202E0CF90917C0060
:10071000907F8F70982B90937C0080917A008064FA
:1007200080937A0090917A00892F807496FDFACF99
:1007300040917800509179009A0136952795369529
:1007400027954C3F534028F42531310518F0822F6E
:1007500008958EEF089582E00E948603282F30E0EE
:10076000843128F0283C310520F08EE1089582E0A4
:10077000089584E0089581E00E948603282F30E0E8
:10078000823328F02639310520F083E0089581E096
:10079000089582E00895DC016530710568F4FB017D
:1007A000EE0FFF1FE60FF71FE80FF91F1F969C9132
:1007B0008181982381E009F480E00895FC01808123
:1007C000423631F493B1692359F0822B8083089526
:1007D000433611F496B1F7CF443611F499B1F3CF03
:1007E00020958223F3CFAF92BF92DF92EF92FF92D8
:1007F0000F931F93CF93DF93CDB7DEB72C970FB630
:10080000F894DEBF0FBECDBF8C01FC01D7847C0104
:100810005C01FFE0AF0EB11CF701218142816081D4
:10082000C5010E94DE03F3E0EF0EF11CEA14FB04A5
:1008300099F70E94BB03F80197859F79F0E28F9F9B
:1008400090011124892F822BF8018787FF24F394CC
:100850008D1101C0F12C8D1509F441C00E94B10029
:1008600060E080E00E94AB0080E191E00E949F0088
:1008700060E081E00E94AB00F801678570E0FE0156
:10088000319647E050E0CF019B01042E02C0359520
:1008900027950A94E2F721703327205D3F4F21937B
:1008A0004150510988F719860E949F0069E081E054
:1008B0000E94AB0081E291E00E949F006BE081E02A
:1008C0000E94AB00F80187854AE0BE01665F7F4F5A
:1008D00090E00E945205CE010A960E949F008F2D43
:1008E0002C960FB6F894DEBF0FBECDBFDF91CF912F
:1008F0001F910F91FF90EF90DF90BF90AF90089500
:100900008295869583700895DC0180E1E0E0F1E056
:1009100001900D928A95E1F7089580E480937C0020
:1009200087E880937A00089583E28093B00082E0A4
:100930008093B1000895CDB7DEB764970FB6F894F1
:10094000DEBF0FBECDBFCE0101960E948404CE0152
:1009500041960E9415010E948D040E94BB000E94D6
:10096000B10070E060E0CE0101960E94CB038111DE
:100970000DC001E030E020E046E050E0BE016F5FD6
:100980007F4FCE0141960E943501EBCF61E070E0D0
:10099000CE0101960E94CB03882339F163E070E019
:1009A000CE0101960E94CB03882369F088890E94BA
:1009B0008004482F21E0BE016F5F7F4FCE0141963A
:1009C0000E944703CECF62E070E0CE0101960E9404
:1009D000CB03282F01E044E050E0BE016F5F7F4F62
:1009E000CE0141960E948401BCCF01E021E030E0BD
:1009F00044E050E0C3CF002E083090F0982F872FAE
:100A0000762F652F542F432F322F22270850F4CFF3
:100A1000220F331F441F551F661F771F881F991F02
:100A20000A95B2F7002D089597FD1094002E083016
:100A300098F00850232F342F452F562F672F782FEB
:100A4000892F912DF4CF1594979587957795679574
:100A500057954795379527950A95AAF71124002DA4
:100A600008950024A7FD00942A0F301D401D501D3D
:100A7000601D701D801D901D08952A153B054C05B5
:100A80005D056E057F058007910708950024A7FD89
:100A900000942A1730054005500560057005800553
:100AA00090050895BB274A3031F4992322F4BDE222
:100AB000909581959F4F0C945E05BB27FB015527B0
:100AC000AA27880F991FAA1FA41710F0A41B8395AB
:100AD0005051B9F7A05DAA3308F0A95DA193009722
:100AE00079F7B111B1931192CB010C947705DC0128
:100AF000FC01672F71917723E1F7329704C07C9155
:100B00006D9370836291AE17BF07C8F30895F89490
:020B1000FFCF15
:100B1200200162100262080462040862021062008C
:100B22007374617465206269746669656C64733A92
:040B3200007C000043
:00000001FF
